:020000040800F2
:1000000050420020590200083B1800080B17000856
:1000100039180008E9020008291A00080000000049
:100020000000000000000000000000009D0100082A
:100030001505000800000000F1010008651800081F
:1000400073020008730200087302000873020008BC
:100050007302000873020008190500087302000803
:10006000730200087302000873020008730200089C
:10007000730200087302000873020008730200088C
:10008000730200087302000873020008730200087C
:100090004903000873020008730200087302000895
:1000A000730200085D19000873020008730200085B
:1000B000730200087302000873020008730200084C
:1000C000730200087302000873020008730200083C
:1000D000730200087302000873020008730200082C
:1000E000730200087302000873020008730200081C
:1000F000730200087302000873020008730200080C
:1001000073020008730200087302000873020008FB
:1001100073020008730200087302000873020008EB
:1001200073020008730200087302000873020008DB
:1001300073020008730200087302000873020008CB
:1001400073020008730200087302000873020008BB
:1001500073020008730200087302000873020008AB
:10016000730200087302000873020008730200089B
:100170007302000873020008730200080000000008
:100180007302000873020008DFF80CD000F09AF840
:1001900000480047491A0008504200202B4B1968BC
:1001A0000868B0E8F04F80F30988BFF36F8F4FF015
:1001B000000080F3118870470000000006480068C6
:1001C000006880F3088862B661B6BFF34F8FBFF353
:1001D0006F8F00DF00BF00BF08ED00E0DFF80C000C
:1001E000016841F470010160704700BF88ED00E0D4
:1001F000EFF30980BFF36F8F144B1A681EF0100FD6
:1002000008BF20ED108A20E9F04F106008B44FF0CD
:10021000500080F31188BFF34F8FBFF36F8F01F051
:10022000D5FE4FF0000080F3118808BC19680868FB
:10023000B0E8F04F1EF0100F08BFB0EC108A80F34A
:100240000988BFF36F8F704700BF00BF1800002000
:10025000EFF30580704700000648804706480047D6
:10026000FEE7FEE7FEE7FEE7FEE7FEE7FEE7FEE766
:10027000FEE7FEE7091900088901000840EA0103CA
:100280009B0703D009E008C9121F08C0042AFAD24C
:1002900003E011F8013B00F8013B521EF9D2704710
:1002A000D2B201E000F8012B491EFBD270470022B8
:1002B000F6E710B513460A4604461946FFF7F0FF65
:1002C000204610BD064C074D06E0E06840F00103F3
:1002D00094E8070098471034AC42F6D3FFF758FF74
:1002E000CC240008EC240008FEE7000010B51449F7
:1002F0000024CC608C600C61086048200875652083
:1003000048756C2088754C20C8756F2008764F2082
:100310004876212088762320C876094864216838E9
:1003200000F0BAFB0749087040B1012804D0022848
:1003300002D0032800D00420486010BD4C6010BDDE
:100340000C3E00206000002010B500240B4800F097
:100350006FF964220021094800F0FCFA08480949B5
:100360000219127D0A55641C082CF9DBBDE8104007
:100370004FF40051044800F03FBD0000A43D0020B0
:10038000283E00206C000020000C024010B54FF405
:10039000D872036802EB01129B5813F00404436BFC
:1003A0009C600468436BA45854D0E4085C60036804
:1003B0009A58436B02F00202DA604FF4DA72036873
:1003C00002EB01129B58446B03F00F032361036897
:1003D0009A58436BC2F30722DA614FF4DC72036868
:1003E00002EB01129B58446B237503689B58446BC6
:1003F0001B0A637503689B58446B1B0CA375036849
:100400009A58436B120EDA754FF4DE72036802EBF2
:1004100001129B58446B237603689B58446B1B0A5C
:10042000637603689B58446B1B0CA37603689A5849
:10043000436B120EDA762022002901680DD00A6182
:1004400001684A6922F010024A6190F838102229A6
:1004500009D021E0640D1C60A9E7CA6001684A69FF
:1004600022F00202F0E701684A6922F480724A61D0
:1004700001684A6922F400724A6101684A6922F4FB
:1004800080624A6101684A6922F400624A61016837
:100490004A6922F400424A6190F83810322907D0A4
:1004A0005FF0010180F8381000F0F4FA002010BD70
:1004B0001221F7E710B501684A6922F001024A618A
:1004C00090F83810122918D101684A6922F4807214
:1004D0004A6101684A6922F400724A6101684A6906
:1004E00022F480624A6101684A6922F400624A612A
:1004F00001684A6922F400424A6190F838103229B2
:1005000006D0012180F8381000F090FB002010BDCB
:100510002221F7E77047000010B5012000F088FBAA
:1005200000204FF6FF71401C8842FCDB4FF4005165
:10053000044800F061FCBDE8104040F22310FFF7D2
:10054000D5BE0000000C0240F0B50A7D01209040AD
:10055000344A136843F001031360136823F47C5397
:10056000136013684C6A43EA042313602D4B1C3359
:100570001C6884431C602B4D2B4CCE690C35A6B9EE
:100580002E6886432E608F894E6867F31F464F6939
:1005900004EBC707C7F840660F890E6867F31F466C
:1005A0004F6904EBC707C7F84466CE69012E14D122
:1005B0002E6806432E600E884D6866F31F454E690F
:1005C00004EBC606C6F840560E89CD6866F31F4593
:1005D0004E6904EBC604C4F84456124C8D69241DC0
:1005E000002D256806D0054325600E4C0D69143496
:1005F00015B104E08543F7E72568854325600D695B
:10060000012D02D1256805432560096A012902D11F
:10061000196801431960106820F001001060002083
:10062000F0BD000000660040006000407047000020
:1006300010B5044600684169C943C90714D18268EE
:100640005849914368D000218368574A9A4365D03E
:10065000002283685548984362D00020114301432B
:1006600002D02046FFF726FF2068C168406911F0DC
:10067000030FC0F3400004D018B100212046FFF75B
:1006800085FE21680869496910F0030FC1F3001164
:1006900004D019B101212046FFF778FE2068816956
:1006A000426911F0010FC2F300234269C2F3C03264
:1006B00005D023B11AB1E16B41F00101E163816919
:1006C000C1F3400341694269C1F34021C2F3C03222
:1006D0002BB121B11AB1E16B41F00201E1638169F3
:1006E0004269C1F38001C2F380234269C2F3C03280
:1006F00029B123B11AB1E16B41F00401E1638169D1
:1007000011F0700F0ED0002142694369C2F3C0227C
:10071000C3F3C03341B127E0012195E7012298E7F7
:1007200001209BE70121EFE7F2B1EBB1816901F014
:100730007001402929D006DC102909D020290BD0CE
:1007400030290DD11DE0502923D0602908D124E0A3
:10075000E16B41F0080102E0E16B41F01001E1635F
:10076000816921F070018161E06B002808D0216867
:1007700004204860012084F838002046FFF756FF27
:1007800010BDE16B41F02001E9E7E16B41F0400170
:10079000E5E7E16B41F08001E1E7E16B41F4807155
:1007A000DDE7000003000004000300080000031060
:1007B0002DE9F041040004D094F83800002518B168
:1007C00007E00120BDE8F08184F83950204600F0B0
:1007D00093F8022084F838002068016821F00201B3
:1007E00001602068016841F00101016000F00EFB2A
:1007F0000746032605E000BF00F008FBC01B0A28DF
:1008000063D820684068C007F6D020684168C907EF
:1008100068D0A169012901683FD021F08001016001
:10082000E0690128206801683AD021F040010160A8
:10083000206A01282068016835D021F0200101607C
:10084000606A01282068016830D021F01001016041
:10085000A06A0128206801682BD021F008010160FE
:10086000E06A01282068016826D021F004010160B7
:10087000D4E902010843D4E9041211430843616832
:10088000491E08432168C8612068016821F0010100
:10089000016000F0BBFA07461CE041F08001BEE7B2
:1008A00041F04001C3E741F02001C8E741F01001E9
:1008B000CDE741F00801D2E741F00401D7E700BFDE
:1008C00000F0A4FAC01B0A2804D904F8386F0320EA
:1008D000657077E720684068C007F1D120684068FC
:1008E000C00703D0042084F838006AE7E5630120DC
:1008F00084F83800002065E700B50068124987B029
:1009000088421FD111480021026842F00072026043
:10091000006800F0007005904FF4407000900220D5
:10092000CDE901010320039009200490694608489D
:1009300000F08AF900221146142000F001FB142077
:1009400000F0F2FA07B000BD0064004040380240F9
:10095000000402402DE9F047044690F8390016469D
:100960000D4601280FD04FF0010884F8398094F823
:10097000380012280AD0222084F8380000F046FA05
:100980008146002712E00220BDE8F0873220F3E71D
:10099000701C0BD02EB100F039FAA0EB0900B04268
:1009A00004D9032004F8380F6770EDE72068002DA4
:1009B00067D0006910F0030FEAD04FF4D8702168B7
:1009C00000EB0510095811F00402616B8A6022687F
:1009D000616B125857D0D2084A6021680858616B81
:1009E00000F00200C8604FF4DA70216800EB0510D7
:1009F0000958626B01F00F01116121680858616BA1
:100A0000C0F30720C8614FF4DC70216800EB0510CB
:100A10000958626B117521680958626B090A517592
:100A200021680958626B090C917521680858616B3F
:100A3000000EC8754FF4DE70216800EB05100958F0
:100A4000626B117621680958626B090A5176216838
:100A50000958626B090C917621680858616B000E89
:100A6000C876216820208DB1C1F8100094F83800B4
:100A700032280DD04FEA080004F8380F00206770C4
:100A800082E7C06896E7520D0A60A6E7C860EDE706
:100A90001220F1E7704700002DE9F05F0E46016873
:100AA00004468868400105D48868000102D488683B
:100AB000C00067D594F8390001280ED0012784F8CA
:100AC000397094F8380022280AD0122084F83800AF
:100AD0008868400106D500250AE00220BDE8F09FA5
:100AE0003220F3E78868000101D5012500E00225E6
:100AF0004FF4C07000EB05100A5802F001020A50D2
:100B0000216B8A68EAB3D4F800C05CF80030134364
:100B1000CA68496842EAC1010B434CF80030216BB6
:100B20000A7C02F00F020A614FF4C271226801EBE5
:100B30000511535823F00F03535022685358D4F82B
:100B400030C0DCF810C043EA0C035350216B4FF463
:100B5000C47303EB05130A7DD1F8151042EA012195
:100B60002268D150216B4FF4C67303EB05130A7E44
:100B7000D1F8191042EA01212268D15021680A589F
:100B800001E00DE046E042F001020A5000F03EF9BB
:100B900081464FF00008DFF888A0DFF888B019E040
:100BA00022681358D1F80CC0098843EA0C0343EAC1
:100BB00041511150B3E7701C0CD02EB100F026F952
:100BC000A0EB0900B04205D9032084F8380084F86E
:100BD000398083E795B12068012D816813D01248D0
:100BE00088430028E7D194F8380032280ED084F8E2
:100BF000387000BF84F8398000206FE72068816872
:100C00002AEA0100EDE72BEA0100EAE7222084F856
:100C10003800EFE7042084F8380001205EE7000088
:100C20000300000400030008000003107047704731
:100C3000044910B50A68024202D00860FFF7F7FFC6
:100C400010BD0000143C01402DE9F84FDFF87CB1E5
:100C500000224FF001084FF0030A4FF00F090BF18B
:100C6000040E00BF0B6808FA02F42340A3426ED1C1
:100C70004D68022D01D0122D0ED1D50800EB850C48
:100C8000DCF820505607F70E09FA07F6B5430E694F
:100C9000BE402E43CCF82060066855000F790AFA52
:100CA00005FC07F0030726EA0C06AF403743076050
:100CB0004E68012E05D0022E03D0112E01D0122E27
:100CC0000ED18668CF6826EA0C06AF4037438760AE
:100CD0004668A6430C79C4F300149440344344603E
:100CE000C6688C6826EA0C06AC403443C4604C6885
:100CF000E40065D5364C256845F4804525602468B8
:100D000022F0030504F480440094324C2E19D6F8E6
:100D1000084895072F0F09FA07F5AC432E4DA84256
:100D200001D1002524E02D4DA84201D101251FE06D
:100D30002B4DA84201D102251AE02A4DA84201D12B
:100D4000032515E0284DA84202D1042510E037E024
:100D5000264DA84201D105250AE0254DA84201D122
:100D6000062505E0234DA84201D1072500E008250E
:100D7000BD402543C6F80858DBF800405D464E6884
:100D80009C43F60300D51C432C60DEF800407546FA
:100D90004E689C43B60300D51C432C600B4D0835B0
:100DA0002C684E689C43F60200D51C432C60074D0E
:100DB0000C352C684E689C43B60200D51C432C6051
:100DC000521C102AFFF44EAFBDE8F88F003C0140E2
:100DD000443802400030014000000240000402405C
:100DE00000080240000C02400010024000140240C3
:100DF00000180240001C024042694A4042617047AC
:100E00000AB1816170470904FBE7000001480068EE
:100E1000704700005C00002002480168491C016026
:100E2000704700005C0000200B4810B5016841F4D9
:100E300000710160016841F480610160016841F462
:100E400080710160032000F09BF8002000F006F89C
:100E500000F03EF8002010BD003C024010B50146F5
:100E600088B00022192000F06BF8192000F05CF81F
:100E700013480024016841F001010160006805A9E0
:100E800000F001000690684600F04AF900F06EF9A3
:100E90000C494000B0FBF1F10C480B4A491E0260BE
:100EA00040F2E732C0E90324C0E9011400F044FB3A
:100EB00010B1012008B010BD044800F059FBF9E75B
:100EC0004438024040420F0000000140683D0020CD
:100ED00010B5032000F054F8002211466FF00B000B
:100EE00000F02EF8002211466FF00A0000F028F8FA
:100EF000002211466FF0090000F022F8002211468E
:100F0000501F00F01DF800221146101F00F018F8C5
:100F100000220F21901E00F013F800220F21BDE8DF
:100F20001040501E00F00CB800F01F02012191404B
:100F30004009800000F1E020C0F800117047000077
:100F4000F0B40E4B1B680C46C3F30223C3F1070534
:100F5000042D00D90425191D072901D2002300E022
:100F6000DB1E012606FA05F1491E214099409E40EC
:100F7000761E16403143F0BC00F060BC0CED00E082
:100F8000064900F0070208684FF6FF03184040EAE0
:100F90000220034A10430860704700000CED00E097
:100FA0000000FA052DE9F047DFF8649105460F4689
:100FB000D9F8000000F00F01F8B28046B94208D21B
:100FC000014689F80010D9F8000000F00F00B8427F
:100FD00074D128784F4C800705D52068A96820F087
:100FE000F000084320602878C00759D04949686854
:100FF000083901281AD002281BD0032819D0096803
:10100000890700295ADA216821F003010143216090
:10101000FFF7FCFE6968064641F28830012911D0CD
:1010200002291DD00329824627D035E009688903AB
:10103000E7E709688901E4E7FFF7E8FE811B51450E
:1010400001D926E082462068C0F381000128F3D14F
:1010500026E000BFFFF7DAFE811B514501D918E0F9
:1010600082462068C0F381000228F3D118E000BF57
:10107000FFF7CCFE811B51450BD82068C0F38100DF
:101080000328F5D10CE000BFFFF7C0FE811B5145DE
:1010900002D90320BDE8F087206810F00C0FF3D1CF
:1010A000D9F80010484601F00F01B94208D980F87C
:1010B0000080006800F00F00B84201D00120E9E78D
:1010C0002878400705D52068E96820F4E0500843F7
:1010D00020602878000706D52068296920F4604040
:1010E00040EAC100206000F059F82168F02292FA2D
:1010F000A2F201F0F001B2FA82F2D140064A515C4C
:10110000C840064908600020FFF7A8FE0020C1E79C
:10111000003C0240083802409C2400087400002073
:101120000F2202600C4A136803F003034360136844
:1011300003F0F0038360136803F4E053C3601268A4
:101140004FF4E05303EAD20202610448006800F061
:101150000F0008607047000008380240003C024061
:1011600001480068704700007400002008480949E1
:10117000006809684FF4604292FAA2F201F46041FB
:10118000B2FA82F2D140044A515CC8407047000074
:1011900074000020083802409C24000830B519482B
:1011A000006810F00C01184812D0184C04290ED019
:1011B00008290DD11349091F0A6802F03F030A6884
:1011C000550247F6C07204D5B4FBF3F003E02046A5
:1011D00030BDB0FBF3F00B680968134092FAA2F23D
:1011E000B2FA82F2D34058434FF4403292FAA2F25C
:1011F00001F44031B2FA82F2D140491C4900B0FBFF
:10120000F1F030BD083802400024F40040787D0140
:101210002DE9F84F0446DFF8CC820078A8F1040BE2
:10122000C007ABF1040537D0D8F800104046C1F331
:101230008101012908D00068C0F3810002280AD189
:10124000DBF80000400206D52868800324D56068DA
:10125000002878D020E0A3492079891F08706068B1
:1012600068B1FFF7D3FD064605E000BFFFF7CEFDEE
:10127000801B642868D828688003F7D50CE0FFF746
:10128000C5FD064605E000BFFFF7C0FD801B6428D2
:10129000F0D828688003F7D42078934E80074FF069
:1012A000010A4FF0000742D5D8F80010404611F06F
:1012B0000C0F08D00068C0F3810002280AD1DBF8C7
:1012C0000000400206D42868800714D5E068012891
:1012D00039D110E0E068D8B1C6F800A0FFF796FD5C
:1012E000814605E0FFF792FDA0EB09000228C1D876
:1012F00028688007F6D52868F82292FAA2F22169B8
:10130000B2FA82F220F0F8009140084328600EE023
:101310003760FFF77BFD814606E000BFFFF776FDF3
:10132000A0EB090002280FD828688007F6D420789F
:10133000000728D56D486169A1B1C0F800A0FFF78A
:1013400065FD814608E0CAE079E000BFFFF75EFD79
:10135000A0EB0900022872D862486C300068800750
:10136000F4D510E00760FFF751FD814606E000BFAD
:10137000FFF74CFDA0EB0900022860D859486C30FB
:1013800000688007F4D42078400749D555483830A4
:10139000016841F080510160006800F080500090C9
:1013A0005348016841F480710160FFF72FFD8146C9
:1013B00006E000BFFFF72AFDA0EB090002283ED897
:1013C0004B480068C005F5D5DFF81891207A09F17F
:1013D000680989F80000A06888B1FFF717FD009040
:1013E00008E000BFFFF712FD0099411A41F2883072
:1013F00081426CD8D9F800008007F3D510E0FFF7E0
:1014000005FD009008E000BFFFF700FD0099411ABC
:1014100041F2883081425AD8D9F800008007F3D4CD
:10142000A069E0B3D8F80010C1F38101022956D0B9
:101430000228376604D0FFF7E9FC04464AE046E09C
:10144000FFF7E4FC074604E0FFF7E0FCC01B0228BE
:101450003DD828688001F7D4D4E90701084347F64E
:10146000C07292FAA2F2616AB2FA82F29140A26A62
:101470004FF0FF3303EB52024FF4403393FAA3F3E0
:10148000B3FA83F39A40114308434FF0706292FA23
:10149000A2F2E16AB2FA82F29140084300E01CE055
:1014A000CBF80000C6F860A0FFF7B0FC044604E0EB
:1014B000FFF7ACFC001B022809D828688001F7D58B
:1014C0000BE000BFFFF7A2FC001B022802D903209B
:1014D000BDE8F88F28688001F4D40020F8E70120E7
:1014E000F6E700000838024000004742800E4742FD
:1014F000007000404FF0E0210428086903D020F07C
:1015000004000861704740F00400FAE710B5401E7F
:10151000B0F1807F01D3012010BD4FF0E024606165
:101520000F21601700F08AF90020A06107202061D8
:10153000002010BD7047704710B5040003D094F828
:10154000390010B107E0012010BD002084F83800F8
:10155000204600F00CF8022084F83900211D206894
:1015600000F002FA012084F83900002010BD704715
:101570000168CA6842F00102CA600068016841F06F
:101580000101016000207047704770B50446006893
:1015900001694FF00005C943890715D4C168C943E3
:1015A000890711D4E91E0161012020762068806935
:1015B0008007204602D0FFF7E7FF04E000F098F82C
:1015C000204600F096F8257620680169C94349074E
:1015D00017D4C168C943490713D46FF004010161EE
:1015E000022020762068806910F4407F204602D0D7
:1015F000FFF7CAFF04E000F07BF8204600F079F81E
:10160000257620680169C943090716D4C168C94312
:10161000090712D46FF008010161042020762068C8
:10162000C0698007204602D0FFF7AEFF04E000F05B
:101630005FF8204600F05DF8257620680169C9430F
:10164000C90617D4C168C943C90613D46FF0100185
:101650000161082020762068C06910F4407F204690
:1016600002D0FFF791FF04E000F042F8204600F0BE
:1016700040F8257620680169C943C90708D1C168C7
:10168000C943C90704D1891E0161204600F032F820
:1016900020680169C943090609D4C168C94309061C
:1016A00005D46FF0800101612046FFF743FF2068F9
:1016B0000169C943490609D4C168C943490605D42B
:1016C0006FF040010161204600F01EF820680169BA
:1016D000C94389060BD4C168C943890607D46FF092
:1016E000200101612046BDE87040FFF724BF70BDB6
:1016F0007047704700680349884201D1FFF78CBBEF
:1017000070470000000001407047FEE72DE9F041FE
:101710001D4C1C48002520601020C4E90105E5602F
:1017200025616561A561E56125626562A56204F1D7
:10173000680604F18400E562C4E90C608438FFF7B0
:1017400037F800B1FEE710480127403001464561F7
:10175000C0E90657056045608560C56007620561A0
:101760004038FEF7F1FEF56040F22130B560C6E981
:10177000000737612068416941F002014161BDE81D
:10178000F081000000640040A43D002070B52648B0
:1017900086B00024016841F004010160016801F095
:1017A00004010591016841F080010160016801F0C8
:1017B00080010591016841F001010160016801F0BB
:1017C00001010591016841F008010160016801F023
:1017D00008010591016841F00201016000680125DE
:1017E00000F00200009505901048CDE9010469461B
:1017F0000F48FFF729FA6E030096CDE901540394D0
:101800000C4C69462046FFF71FFA0022314620465D
:10181000FFF7F6FA002211460620FFF791FB06209B
:10182000FFF782FB06B070BD303802400000111097
:1018300000000240000C0240FEE770470907090E55
:10184000002806DA00F00F0000F1E02080F8141DF7
:10185000704700F1E02080F800147047012000F08C
:1018600015F9FBE700F01EB930B5254893B0002507
:10187000016841F080510160006800F080501190D3
:101880002048016841F4804101600068022400F4AE
:101890008040119001200390102004900094069441
:1018A0000820CDE90750A820CDE9090404200B90B9
:1018B0006846FFF7ADFC00B1FEE70CA90F2081E8F8
:1018C00031004FF4A0500F904FF48050109005213C
:1018D0000CA8FFF767FB00B1FEE7FFF741FC4FF4F0
:1018E0007A71B0FBF1F0FFF711FE0420FFF702FE62
:1018F00000220F21501EFFF723FB13B030BD000064
:1019000040380240007000401048016841F4700106
:1019100001600F48016841F0010101600C4A00219B
:101920000832116002680B4B1A400260031D0A4A1C
:101930001A60026822F48022026005480C300160BF
:1019400002495806803908607047000088ED00E0C1
:1019500000380240FFFFF6FE103000240148FFF778
:1019600014BE0000683D0020F0B50268234B244DF2
:10197000244E254F254C4FF0804C984209D06045AD
:1019800007D0A84205D0B04203D0B84201D0A0424F
:1019900004D122F0700E4A6842EA0E0298421BD02F
:1019A000604519D0A84217D0B04215D0B84213D024
:1019B000A04211D0164DA8420ED0164DA8420BD011
:1019C000154DA84208D0154DA84205D0144DA84287
:1019D00002D0144DA84203D122F44075CA682A43AC
:1019E00002608A68C2620A688262984201D0A0429C
:1019F00001D10969016301214161F0BD000001408D
:101A00000004004000080040000C004000040140B9
:101A100000400140004401400048014000180040DF
:101A2000001C004000200040FEE702E008C8121F32
:101A300008C1002AFAD170477047002001E001C1B7
:101A4000121F002AFBD1704786B0FFF7EDF9FFF7B0
:101A50000BFFFFF79BFEFFF759FE1422064968466D
:101A6000FEF70CFC0021684600F026F80349886068
:101A700000F013F8FEE70000AC240008600000202E
:101A800001460020842900D0C81C704710B500B959
:101A9000012000F02BFA002010BD10B500F05AFA1A
:101AA000002010BD10B500F023FC012803D0BDE8D4
:101AB000104000F029BB10BD30B5044685B00D467E
:101AC000B0F90800FFF7DCFF002104AA0090CDE97F
:101AD00001210391208A2B4682B2D4E9001000F044
:101AE00029FB012802D0002005B030BD0498FBE797
:101AF00070B50B4C054620684560E068216885425A
:101B000005D2606BBDE87040091D00F059B9206B2B
:101B1000091D00F055F9A06A854200D2A56270BD8A
:101B20001800002070B5124E124C1AE000F046FA70
:101B30003068D0B100F050FC00F066F9F068C5687C
:101B4000281D00F01DF9A068401EA0606068401EBE
:101B5000606000F079F9286B00F08AF9284600F0FF
:101B600087F960680028E1D170BD00F035FCF8E726
:101B7000403D00201800002010484FF470514207EB
:101B800006D0C01D0D4920F00700411AC1F5705163
:101B90000B4A00230144C2E900030839103A21F03E
:101BA000070111604B600B600B1AC0E900139360D2
:101BB0004FF000405360D060704700007800002074
:101BC00010000020074C4FF08056074DFFF7AAFF8A
:101BD00020680128FAD92E60BFF34F8FBFF36F8FB3
:101BE000F4E70000783C002004ED00E030B5114936
:101BF00000E011460A688242FBD34B685C188442BD
:101C000003D1406818444860084643681C18944251
:101C100009D1084C103C2468A24209D052681A44E9
:101C200042600A6812680260814200D0086030BDDC
:101C30000460F9E7100000200648016B096829B12B
:101C4000016BC968C9684968816270474FF0FF310C
:101C5000FAE700001800002008484068401C4FF0D8
:101C6000500080F3118804D0BFF34F8FBFF36F8F04
:101C7000FEE7BFF34F8FBFF36F8FFEE750000020EA
:101C80002DE9F0410546002700F098F9314E306803
:101C900008B9FFF771FFF06805424BD1C5B30835AD
:101CA00068070ED005F00700C0F10800054468077A
:101CB00007D0502080F31188BFF34F8FBFF36F8F91
:101CC000FEE72DB37068854234D8224810300146B3
:101CD0000C6801E020460C466168A94202D22168E6
:101CE0000029F7D131688C4224D00768216801604F
:101CF00060680837411B10290FD96019420708D0C6
:101D0000502080F31188BFF34F8FBFF36F8FFEE732
:101D100010E041606560FFF769FF61687068401A14
:101D20007060B268904200D2B060F0680143002059
:101D3000C4E9000100F050FB780707D0502080F381
:101D40001188BFF34F8FBFF36F8FFEE73846BDE8B2
:101D5000F08100000000002010B5031F4FF08074D8
:101D60001C601B1F1960191F044B0B6014390A609B
:101D7000091F6FF0020244380A6010BD591C0008A8
:101D8000D0E9013201699A60D0E901235A604A68BA
:101D9000824201D182684A60002202610868401EC6
:101DA0000860704700F108014FF0FF32C0E90112EE
:101DB000C16001610021016070470021016170472D
:101DC00030B50B685A1C02D000F1080202E002692B
:101DD00004E02246546825689D42FAD953684B6056
:101DE00099608A60516008610168491C016030BDDA
:101DF00042684A6093688B6093685960916008619B
:101E00000168491C01607047502080F31188BFF3BE
:101E10004F8FBFF36F8F0A494868401C4860012804
:101E20000CD10848006810F0FF0F07D0502080F355
:101E30001188BFF34F8FBFF36F8FFEE7704700002D
:101E40005000002004ED00E00849486828B1401E19
:101E5000486001D180F311887047502080F31188C9
:101E6000BFF34F8FBFF36F8FFEE7000050000020DD
:101E700070B5002827D0144DA0F108046168E86807
:101E8000014207D1502080F31188BFF34F8FBFF379
:101E90006F8FFEE722683AB1502080F31188BFF3BC
:101EA0004F8FBFF36F8FFEE78143616000F086F8CC
:101EB00060686968084468602046FFF797FEBDE8DF
:101EC000704000F089BA70BD0000002006484FF451
:101ED0007A710068B0FBF1F14FF0E020491E4161DA
:101EE00007210161704700007400002070B50200F6
:101EF00022D0164CE06A38B1502080F31188BFF32D
:101F00004F8FBFF36F8FFEE700F058F8E068851839
:101F10002068001DFFF734FF38B9206890F82C10B6
:101F2000012088402169814321612846FFF7E0FDB7
:101F300000F052FA002807D105494FF080500860A0
:101F4000BFF34F8FBFF36F8F70BD000018000020EC
:101F500004ED00E01FB50024009401940294234690
:101F6000802212A11348039400F0E4F8012809D05C
:101F7000002819D1502080F31188BFF34F8FBFF391
:101F80006F8FFEE7502080F31188BFF34F8FBFF3B0
:101F90006F8F09484FF0FF31816201214161C460B8
:101FA000BDE81F4000F040B81FBD000049444C454B
:101FB00000000000C51B0008180000200248C16A8C
:101FC000491CC16270470000180000201448C16A13
:101FD00011B10121C16170470021C1610169B1FAEC
:101FE00081F1C1F11F0101EB81020E4951F822304C
:101FF0006BB101EB820101F108034A6852684A6043
:102000009A4201D152684A60D168016070475020FD
:1020100080F31188BFF34F8FBFF36F8FFEE700008F
:1020200018000020783C00201CB532480168324A74
:10203000914207D1502080F31188BFF34F8FBFF337
:102040006F8FFEE700682C49491E884207D1502057
:1020500080F31188BFF34F8FBFF36F8FFEE72749DF
:1020600008780190FF20087008788DF800009DF82E
:1020700000009DF8002000F0F000904207D05020B2
:1020800080F31188BFF34F8FBFF36F8FFEE79DF88A
:1020900000001B4A00F0500010700720906005E01F
:1020A0009DF800305B008DF80030401E9DF8003038
:1020B0001B06F5D4000200F4E060906001980870FF
:1020C0000C482030016841F470010160016841F062
:1020D00070410160FFF7FAFE00205060FEF77EF8C5
:1020E0000848016841F040410160FEF767F80020B0
:1020F0001CBD000000ED00E071C20F4100E400E0F3
:102100005000002034EF00E010B5502080F311881B
:10211000BFF34F8FBFF36F8F00F0F8F818B1044989
:102120004FF080500860002080F3118810BD00003F
:1021300004ED00E02DE9FF5F5FEA000BDDE90F90A1
:102140000E9E15468A4609D0072E0FD3502080F3E5
:102150001188BFF34F8FBFF36F8FFEE7502080F3DE
:102160001188BFF34F8FBFF36F8FFEE7A90088463A
:1021700010B90846FFF784FD07001ED05C20FFF76A
:102180007FFD0400384616D0A52241462063FEF7A5
:1021900087F86FF00301206B01EB8501084420F004
:1021A000070778070CD0502080F31188BFF34F8FBA
:1021B000BFF36F8FFEE7FFF75BFE4FF0FF348CE05D
:1021C00051463546002022180B5C82F834300A5CF8
:1021D00012B1401C1028F6D3002084F84300072DCC
:1021E00000D30625E562C4E913508046201DFFF7A1
:1021F000E4FD04F11800FFF7E0FD2461C5F10701DB
:102200006462A161C4F8548084F858805946384605
:10221000039AFFF7A1FD2060B9F1000F01D0C9F8C2
:102220000040FFF7F1FD2F4DA868401CA86028680A
:10223000DFF8B48010B1686948B32DE02C60A8685D
:10224000012829D15FF0000707EB870108EB810027
:10225000FFF7A8FD7F1C072FF6D323488C30FFF72C
:10226000A1FD2148A030FFF79DFD1F48B430FFF7C6
:1022700099FD1D48C830FFF795FD1B48DC30FFF77E
:1022800091FD19488C3028631430686304E0286895
:10229000C06AB04200D82C60686A401C6862606402
:1022A000E16A01202A6988401043286101EB81011D
:1022B00008EB8100211DFFF79BFD0124FFF7C4FD02
:1022C000686950B12868C06AB04206D20749200741
:1022D0000860BFF34F8FBFF36F8F04B02046BDE897
:1022E000F09F000018000020783C002004ED00E082
:1022F0000548416919B1C06A18B100207047012032
:102300007047022070470000180000202DE9F041BE
:102310002F4C0026E06A40B1A069401CA061E06932
:1023200000B101263046BDE8F081E068401CE06065
:10233000E7689FB9206B006838B1502080F311889E
:10234000BFF34F8FBFF36F8FFEE7206B616B21638D
:102350006063206A401C2062FFF76EFCA06ADFF811
:102360007480874209D3206B006880B1206BC068FD
:10237000C568686887420DD2A0622068C06A00EB19
:10238000800158F821000128C9D90126C7E74FF07C
:10239000FF30F1E7281DFFF7F3FCA86A18B105F13B
:1023A0001800FFF7EDFCE86A012122698140114322
:1023B000216100EB800108EB8100291DFFF718FD6A
:1023C000E86A2168C96A8842CDD30126CBE70000BC
:1023D00018000020783C00202DE9F0472C4C002606
:1023E000E06A38B1FFF710FDE06A401EE062E06A83
:1023F00040B147E0502080F31188BFF34F8FBFF307
:102400006F8FFEE7A168234D012079B3A5F1B409D0
:1024100080462868E8B1E868C76807F11800FFF748
:10242000AFFC381DFFF7ACFCF96A226908FA01F02D
:102430001043206101EB810109EB8100391DFFF799
:10244000D7FCF86A2168C96A8842E2D3C4F81C80C4
:10245000DFE7A06958B14546A06940B1FFF756FFD4
:1024600000B1E561A069401EA061F5E70AE0E069FE
:10247000012807D10849012600070860BFF34F8FE4
:10248000BFF36F8FFFF7E0FC3046BDE8F087000038
:10249000180000202C3D002004ED00E000000000AA
:1024A000010203040102030406070809C02400080E
:1024B0005D1800080000000000000000800000001F
:1024C00064656661756C745461736B00EC2400087C
:1024D00000000020780000002A1A00086425000887
:1024E00078000020D84100003A1A000800000000DF
:1024F00000000000000000000000000000000000DC
:1025000000000000000000000000000000000000CB
:1025100000000000000000000000000000000000BB
:1025200000000000000000000000000000000000AB
:10253000000000000000000000000000000000009B
:10254000AAAAAAAA000000000000000001000000E2
:102550000400000000000000000000000000000077
:042560000024F4005F
:040000050800018965
:00000001FF
