:020000040800F2
:20000000980800209D0100086B0F0008930E0008690F0008E5010008651400080000000060
:200020000000000000000000000000008F0F0008E7010008000000008D0F0008910F0008DE
:20004000B7010008B7010008B7010008B7010008B7010008B7010008B7010008B7010008A0
:20006000B7010008B7010008B7010008B7010008B7010008B7010008B7010008B701000880
:20008000B7010008B7010008B7010008B7010008B7010008B7010008B7010008B701000860
:2000A000B701000889100008B7010008B7010008B7010008B7010008B7010008B70100085F
:2000C000B7010008B7010008B7010008B7010008B7010008B7010008B7010008B701000820
:2000E000B7010008B7010008B7010008B7010008B7010008B7010008B7010008B701000800
:20010000B7010008B7010008B7010008B7010008B7010008B7010008B7010008B7010008DF
:20012000B7010008B7010008B7010008B7010008B7010008B7010008B7010008B7010008BF
:20014000B7010008B7010008B7010008B7010008B7010008B7010008B7010008B70100089F
:20016000B7010008B7010008B7010008B7010008B7010008B7010008B7010008000000003F
:20018000B7010008B7010008DFF80CD000F018F800480047E91400089808002006488047C3
:2001A00006480047FEE7FEE7FEE7FEE7FEE7FEE7FEE7FEE7FEE7FEE73510000889010008D9
:2001C000064C074D06E0E06840F0010394E8070098471034AC42F6D3FFF7DAFF541500087A
:2001E00074150008FEE77047FEE710B5040002D0607910B106E0012010BD002020712046CD
:2002000000F006F80220607101206071002010BD08B500680649884208D10648016841F41B
:2002200080510160006800F48050009008BD000000300240303802402DE9F84FDFF87CB18E
:2002400000224FF001084FF0030A4FF00F090BF1040E00BF0B6808FA02F42340A3426ED1D2
:200260004D68022D01D0122D0ED1D50800EB850CDCF820505607F70E09FA07F6B5430E693D
:20028000BE402E43CCF82060066855000F790AFA05FC07F0030726EA0C06AF403743076068
:2002A0004E68012E05D0022E03D0112E01D0122E0ED18668CF6826EA0C06AF4037438760BB
:2002C0004668A6430C79C4F30014944034434460C6688C6826EA0C06AC403443C4604C68C9
:2002E000E40065D5364C256845F480452560246822F0030504F480440094324C2E19D6F8C5
:20030000084895072F0F09FA07F5AC432E4DA84201D1002524E02D4DA84201D101251FE00A
:200320002B4DA84201D102251AE02A4DA84201D1032515E0284DA84202D1042510E037E0B6
:20034000264DA84201D105250AE0254DA84201D1062505E0234DA84201D1072500E00825B7
:20036000BD402543C6F80858DBF800405D464E689C43F60300D51C432C60DEF80040754625
:200380004E689C43B60300D51C432C600B4D08352C684E689C43F60200D51C432C60074D85
:2003A0000C352C684E689C43B60200D51C432C60521C102AFFF44EAFBDE8F88F003C01401A
:2003C0004438024000300140000002400004024000080240000C0240001002400014024026
:2003E00000180240001C02400AB1816170470904FBE700000148006870470000000000207A
:2004000002480168491C016070470000000000200B4810B5016841F400710160016841F466
:2004200080610160016841F480710160032000F09BF8002000F006F800F03EF8002010BDC3
:20044000003C024010B5014688B00022192000F06BF8192000F05CF813480024016841F096
:2004600001010160006805A900F001000690684600F04AF900F086F90C494000B0FBF1F10A
:200480000C480B4A491E026040F2E732C0E90324C0E9011400F05FFB10B1012008B010BD60
:2004A000044800F074FBF9E74438024040420F00000001401800002010B5032000F054F8C5
:2004C000002211466FF00B0000F02EF8002211466FF00A0000F028F8002211466FF0090050
:2004E00000F022F800221146501F00F01DF800221146101F00F018F800221146901E00F046
:2005000013F80022BDE810401146501E00F00CB800F01F02012191404009800000F1E02082
:20052000C0F8001170470000F0B40E4B1B680C46C3F30223C3F10705042D00D90425191D65
:20054000072901D2002300E0DB1E012606FA05F1491E214099409E40761E16403143F0BCF6
:2005600000F004BD0CED00E0064900F0070208684FF6FF03184040EA0220034A1043086046
:20058000704700000CED00E00000FA052DE9F047DFF8649105460F46D9F8000000F00F0142
:2005A000F8B28046B94208D2014689F80010D9F8000000F00F00B84274D128784F4C80074D
:2005C00005D52068A96820F0F000084320602878C00759D049496868083901281AD002286D
:2005E0001BD0032819D00968890700295ADA216821F0030101432160FFF7FCFE696806462E
:2006000041F28830012911D002291DD00329824627D035E009688903E7E709688901E4E73B
:20062000FFF7E8FE811B514501D926E082462068C0F381000128F3D126E000BFFFF7DAFEC8
:20064000811B514501D918E082462068C0F381000228F3D118E000BFFFF7CCFE811B51457B
:200660000BD82068C0F381000328F5D10CE000BFFFF7C0FE811B514502D90320BDE8F0873F
:20068000206810F00C0FF3D1D9F80010484601F00F01B94208D980F80080006800F00F0048
:2006A000B84201D00120E9E72878400705D52068E96820F4E050084320602878000706D553
:2006C0002068296920F4604040EAC100206000F071F82168F02292FAA2F201F0F001B2FA3F
:2006E00082F2D140064A515CC840064908600020FFF7A8FE0020C1E7003C02400838024035
:2007000044150008140000200F2202600C4A136803F003034360136803F0F0038360136885
:2007200003F4E053C36012684FF4E05303EAD20202610448006800F00F0008607047000086
:2007400008380240003C024001480068704700001400002008480949006809684FF4E0520D
:2007600092FAA2F201F4E051B2FA82F2D140044A515CC84070470000140000200838024092
:200780004415000808480949006809684FF4604292FAA2F201F46041B2FA82F2D140044A63
:2007A000515CC8407047000014000020083802404415000830B51948006810F00C0118489B
:2007C00012D0441004290ED008290DD11349091F0A6802F03F030A68550247F6C07204D58E
:2007E000B4FBF3F003E0204630BDB0FBF3F00B680968134092FAA2F2B2FA82F2D34058437E
:200800004FF4403292FAA2F201F44031B2FA82F2D140491C4900B0FBF1F030BD08380240C3
:200820000024F4002DE9F84F0446DFF8CC820078A8F1040BC007ABF1040537D0D8F8001061
:200840004046C1F38101012908D00068C0F3810002280AD1DBF80000400206D52868800336
:2008600024D56068002878D020E0A3492079891F0870606868B1FFF7BDFD064605E000BF21
:20088000FFF7B8FD801B642868D828688003F7D50CE0FFF7AFFD064605E000BFFFF7AAFD4C
:2008A000801B6428F0D828688003F7D42078934E80074FF0010A4FF0000742D5D8F80010E4
:2008C000404611F00C0F08D00068C0F3810002280AD1DBF80000400206D42868800714D50E
:2008E000E068012839D110E0E068D8B1C6F800A0FFF780FD814605E0FFF77CFDA0EB09003C
:200900000228C1D828688007F6D52868F82292FAA2F22169B2FA82F220F0F800914008439A
:2009200028600EE03760FFF765FD814606E000BFFFF760FDA0EB090002280FD828688007D7
:20094000F6D42078000728D56D486169A1B1C0F800A0FFF74FFD814608E0CAE079E000BF55
:20096000FFF748FDA0EB0900022872D862486C3000688007F4D510E00760FFF73BFD8146EA
:2009800006E000BFFFF736FDA0EB0900022860D859486C3000688007F4D42078400749D5A2
:2009A00055483830016841F080510160006800F0805000905348016841F480710160FFF72D
:2009C00019FD814606E000BFFFF714FDA0EB090002283ED84B480068C005F5D5DFF81891B0
:2009E000207A09F1680989F80000A06888B1FFF701FD009008E000BFFFF7FCFC0099411A23
:200A000041F2883081426CD8D9F800008007F3D510E0FFF7EFFC009008E000BFFFF7EAFCE0
:200A20000099411A41F2883081425AD8D9F800008007F3D4A069E0B3D8F80010C1F3810111
:200A4000022956D00228376604D0FFF7D3FC04464AE046E0FFF7CEFC074604E0FFF7CAFC9E
:200A6000C01B02283DD828688001F7D4D4E90701084347F6C07292FAA2F2616AB2FA82F2F6
:200A80009140A26A4FF0FF3303EB52024FF4403393FAA3F3B3FA83F39A40114308434FF012
:200AA000706292FAA2F2E16AB2FA82F29140084300E01CE0CBF80000C6F860A0FFF79AFCD4
:200AC000044604E0FFF796FC001B022809D828688001F7D50BE000BFFFF78CFC001B0228F0
:200AE00002D90320BDE8F88F28688001F4D40020F8E70120F6E700000838024000004742EB
:200B0000800E4742007000404FF0E0210428086903D020F004000861704740F00400FAE715
:200B2000704710B5401EB0F1807F01D3012010BD4FF0E02460610F21601700F017FA0020AD
:200B4000A06107202061002010BD10B5FFF7E8FF10BD7047704710B5040003D094F83900C1
:200B600010B107E0012010BD002084F83800204600F00CF8022084F83900211D206800F024
:200B800089FA012084F83900002010BD70470168CA6842F00102CA600068016841F001015A
:200BA000016000207047704770B50446006801694FF00005C943890715D4C168C943890777
:200BC00011D4E91E016101202076206880698007204602D0FFF7E7FF04E000F098F820463A
:200BE00000F096F8257620680169C943490717D4C168C943490713D46FF00401016102204F
:200C000020762068806910F4407F204602D0FFF7CAFF04E000F07BF8204600F079F825766A
:200C200020680169C943090716D4C168C943090712D46FF008010161042020762068C0695C
:200C40008007204602D0FFF7AEFF04E000F05FF8204600F05DF8257620680169C943C906F4
:200C600017D4C168C943C90613D46FF010010161082020762068C06910F4407F204602D062
:200C8000FFF791FF04E000F042F8204600F040F8257620680169C943C90708D1C168C943BB
:200CA000C90704D1891E0161204600F033F820680169C943090609D4C168C943090605D4FE
:200CC0006FF0800101612046FFF743FF20680169C943490609D4C168C943490605D46FF04E
:200CE00040010161204600F01FF820680169C94389060BD4C168C943890607D46FF0200159
:200D000001612046BDE87040FFF724BF70BD70477047000000680349884201D1FFF770BBD1
:200D20007047000000000140704770B5040004D094F83900002510B106E0012070BD84F8AC
:200D40003850204600F022F8242084F839002068C16821F40051C160204600F0FBF9206898
:200D6000016921F4904101612068416921F02A0141612068C16841F40051C160E5632020D1
:200D800084F8390084F83A00002070BD00B500680E4987B0884216D10D48016841F400311B
:200DA00001600068694600F4003005900C200090022001900120029003200390072004906F
:200DC0000448FFF739FA07B000BD00000044004040380240000002402DE9F843044690F887
:200DE00039001E4617460D46202850D135B32FB394F8380001284AD0012084F838004FF058
:200E00000008C4F83C80212084F83900FFF7F2FAA784E78481464FF48057E08C4B46401EA8
:200E2000E084A0684FF00002B8424FF080012046009611D100F0E4FA00BB02E00120BDE83C
:200E4000F8832888C0F3080120684160206908B16D1C08E0AD1C06E000F0D2FA70B92168B2
:200E600015F8010B4860E08C0028D6D14B46002240212046009600F0C3FA08B10320DEE718
:200E8000202084F8390084F838800020D7E70220D5E7FEE7074910B5054808600846FFF77A
:200EA000A4F9002803D0BDE81040FFF79DB910BD003002400800002070B51B4886B0002410
:200EC000016841F004010160016801F004010591016841F080010160016801F08001059130
:200EE000016841F001010160016801F001010591016841F00801016000680C4E00F0080045
:200F00004FF470450590002229463046FFF76CFA01200095CDE90104694630460394FFF7BE
:200F20008BF906B070BD000030380240000C02400C4810B50A4901604FF4E131416000216E
:200F400081600C22C160C0E904128161C161FFF7ECFE002803D0BDE81040FFF745B910BD0D
:200F60000044004054000020FEE770470907090E002806DA00F00F0000F1E02080F8141D15
:200F8000704700F1E02080F80014704770477047FFF7DBBD30B5254893B00025016841F016
:200FA00080510160006800F0805011902048016841F4804101600068022400F4804011902B
:200FC0000120039010200490009406940820CDE90750A820CDE9090404200B906846FFF748
:200FE00021FC00B1FEE70CA90F2081E831004FF4A0500F904FF48050109005210CA8FFF76B
:20100000C5FA00B1FEE7FFF79FFB4FF47A71B0FBF1F0FFF786FD0420FFF776FD00221146B2
:20102000501EFFF781FA13B030BD000040380240007000401048016841F4700101600F4898
:20104000016841F0010101600C4A00210832116002680B4B1A400260031D0A4A1A6002689D
:2010600022F48022026005480C30016002495806803908607047000088ED00E0003802401C
:20108000FFFFF6FE103000240148FFF78DBD000018000020F0B50268234B244D244E254F65
:2010A000254C4FF0804C984209D0604507D0A84205D0B04203D0B84201D0A04204D122F06D
:2010C000700E4A6842EA0E0298421BD0604519D0A84217D0B04215D0B84213D0A04211D009
:2010E000164DA8420ED0164DA8420BD0154DA84208D0154DA84205D0144DA84202D0144DDA
:20110000A84203D122F44075CA682A4302608A68C2620A688262984201D0A04201D1096908
:20112000016301214161F0BD000001400004004000080040000C00400004014000400140FB
:20114000004401400048014000180040001C0040002000402DE9F04104460068016921F4F5
:201160004052E168114301612168C86849F20C6290432369A268E5691A4363692B431A43D1
:201180000243CA602168486920F44072A06910434861E1696425B1F5004F9748974A2168CA
:2011A0004FF032083FD0914201D081427CD1FFF7E9FA00EBC00101EB001061688900B0FB75
:2011C000F1F6FFF7DFFA00EBC00101EB001061688900B0FBF1F0B0FBF5F06FF01801484340
:2011E00006EB800108EB0110B0FBF5F000F0F006FFF7C8FA00EBC00101EB00106168890051
:20120000B0FBF1F0B0FBF5F006EB0016FFF7BAFA00EBC00101EB001061688900B0FBF1F774
:20122000FFF7B0FAD2E0914201D081423DD1FFF7A9FA00EBC00101EB001061684900B0FBE9
:20124000F1F0B0FBF5F00601FFF79CFA00EBC00101EB001061684900B0FBF1F7FFF792FABB
:2012600000EBC00101EB001061684900B0FBF1F0B0FBF5F06FF01801484307EB800108EB2F
:20128000C100B0FBF5F000F0F80006EB4006FFF779FA00EBC00101EB001061684900B0FB10
:2012A000F1F7FFF76FFA3CE055E0FFF753FA00EBC00101EB001061684900B0FBF1F0B0FB62
:2012C000F5F00601FFF746FA00EBC00101EB001061684900B0FBF1F7FFF73CFA00EBC001C7
:2012E00001EB001061684900B0FBF1F0B0FBF5F06FF01801484307EB800108EBC100B0FBEF
:20130000F5F000F0F80006EB4006FFF723FA00EBC00101EB001061684900B0FBF1F7FFF773
:2013200019FA00EBC00101EB001061684900B0FBF1F0B0FBF5F06FF01801484307EB80014E
:2013400008EBC100B0FBF5F000F00700216830448860BDE8F081FFF7FDF900EBC00101EBD3
:20136000001061688900B0FBF1F6FFF7F3F900EBC00101EB001061688900B0FBF1F0B0FB66
:20138000F5F06FF01801484306EB800108EB0110B0FBF5F000F0F006FFF7DCF900EBC00102
:2013A00001EB001061688900B0FBF1F0B0FBF5F006EB0016FFF7CEF900EBC00101EB001057
:2013C00061688900B0FBF1F7FFF7C4F900EBC00101EB001061688900B0FBF1F0B0FBF5F05F
:2013E0006FF01801484307EB800108EB0110B0FBF5F000F00F00A9E70014014000100140AE
:201400002DE9F041984617460E460446069D1DE0681C1BD02DB1FEF7EDFFA0EB0800A84261
:2014200014D92068C16821F4D071C1602068416921F001014161202084F8390084F83A0005
:20144000002084F838000320BDE8F0812068006836EA000004D00020B842D9D00020F3E7DE
:201460000120F9E7FEE702E008C8121F08C1002AFAD170477047002001E001C1121F002A59
:20148000FBD17047F0B5DFF854C0154EDCF80030ABB9144F002423465FF000055FEAC37EA0
:2014A0004FEA530300D07B406D1C082DF6DB46F82430641CFF2CEEDD0123CCF80030C04360
:2014C0000A4407E011F8013BC4B25C4056F8243083EA10209142F5D3C043F0BD10000020C6
:2014E000940000202083B8EDFEF792FFFFF752FDFFF7E2FCFFF7CEFCFFF71AFD47F6FC72D9
:201500004FF000610020FFF7BDFF08494FF06403086007490968814202D00A2205A101E0F1
:20152000062205A10648FFF757FCFEE704000020FC7F00086E6F745F657175616C000000F2
:2015400054000020000000000102030401020304060708097415000800000020180000001C
:20156000661400088C150008180000208008000076140008000000000000000000000000EE
:2015800000000000000000000024F400000000000000000000000000000000000000000033
:2015A00000000000000000000000000000000000000000000000000000000000000000002B
:2015C00000000000000000000000000000000000000000000000000000000000000000000B
:2015E0000000000000000000000000000000000000000000000000000000000000000000EB
:201600000000000000000000000000000000000000000000000000000000000000000000CA
:207FE0000000000000000000000000000000000000000000000000000000000076BBB0920E
:040000050800018965
:00000001FF
