:020000040800F2
:1000000038070020C90E0008090F00080B0F000870
:100010000D0F00080F0F0008110F0008000000006E
:10002000000000000000000000000000130F0008A6
:10003000150F000800000000170F0008190F000836
:10004000E30E0008E30E0008E30E00089503000825
:10005000E30E0008E30E0008E30E0008E30E0008BC
:10006000E30E0008E30E0008E30E0008E30E0008AC
:10007000E30E0008E30E0008E30E0008E30E00089C
:100080004D070008E30E0008E30E0008E30E000829
:100090005F0F0008E30E0008E30E0008E30E0008FF
:1000A000E30E0008E30E0008E30E0008E30E00086C
:1000B000E30E0008E30E0008E30E0008E30E00085C
:1000C000E30E0008E30E0008E30E0008E30E00084C
:1000D000E30E0008E30E0008E30E00081B0F000803
:1000E000E30E0008E30E0008E30E0008E30E00082C
:1000F000E30E0008E30E0008E30E0008E30E00081C
:10010000E30E0008E30E0008E30E0008E30E00080B
:10011000E30E0008E30E0008E30E0008E30E0008FB
:10012000E30E0008E30E0008E30E0008E30E0008EB
:10013000E30E0008E30E0008E30E0008E30E0008DB
:10014000C70F0008E30E0008E30E0008E30E0008E6
:10015000E30E0008E30E0008E30E0008E30E0008BB
:10016000E30E0008E30E0008E30E0008E30E0008AB
:10017000E30E0008E30E0008E30E0008E30E00089B
:10018000E30E0008E30E000800F002F800F04CF85F
:100190000AA090E8000C82448344AAF10107DA45E2
:1001A00001D100F041F8AFF2090EBAE80F0013F0E8
:1001B000010F18BFFB1A43F001031847444D00001C
:1001C000644D0000103A24BF78C878C1FAD85207AD
:1001D00024BF30C830C144BF04680C6070470000C1
:1001E0000023002400250026103A28BF78C1FBD840
:1001F000520728BF30C148BF0B607047662904F022
:100200003286642903F00482002070471FB504F091
:1002100020FE03F0B5FC04000020002104F00AFADF
:10022000E0601FBD10B510BD03F0C2FD1146FFF721
:10023000EDFF00F031FC03F0E0FD03B4FFF7F2FF47
:1002400003BC00F02CFE00000EB5002000907C20C6
:100250000190FF200290684602F056FC0EBD1CB5CE
:100260000020009001210190080701F0A9F9FEA0EB
:1002700003F08EF9012002F05DFB012001F0C2F8CD
:10028000612001F07BF80028FAD04FF48041FD484E
:1002900001F025F84FF4007001F053F9FF200190B0
:1002A0007C200090012001F061F9BDE81C4002F0C3
:1002B0009DBB10B5F4A003F06BF94FF480442146C8
:1002C000F04801F017F8002002F043FE4FF6FF70EF
:1002D00002F050FE0121204603F027F8BDE810404F
:1002E000012002F057BE10B545F2555002F0F8FA61
:1002F000062002F0F8FA40F6FF7002F0F7FA00204C
:1003000002F0EEFABDE8104002F0F8BA3EB5012165
:10031000880303F00AF8E3A003F03AF94FF48004ED
:10032000204602F0D5FA009400248DF804400820FD
:100330008DF8050001258DF80650684602F06AFA2E
:1003400003208DF808008DF809408DF80A408DF8DB
:100350000B5002A800F0ABFE3EBD10B54FF480403C
:1003600002F0FDFA012001F003F8312001F006F857
:100370000028FAD0012001F058F8392000F0FEFFE3
:100380000028FAD0022001F072F801F078F808286D
:10039000FBD110BD10B5CAA003F0FAF8012002F09D
:1003A000FAFF002810D0FFF7D8FF4FF4804003F089
:1003B00009F84FF4806002F0E2FFFFF7CEFFBDE8DE
:1003C0001040002002F0E6BD10BD01B50098411EAE
:1003D0000091FBD208BD00214FF6FF720020401CA7
:1003E00080B29042FBD30020401C80B29042FBD3ED
:1003F0000020401C80B29042FBD30020401C80B201
:100400009042FBD3491C89B22029E7D3704710B52D
:100410000121042001F0B6F8AE484FF440610222F9
:1004200001600271002181714271C171AA4C0146C3
:10043000204600F0EFFE07220B21204600F05EFF71
:1004400020460722BDE810400A2100F057BF10B532
:100450000121880401F0B4F8A0484FF416510C2291
:10046000016000218180C1800181428181819C4C99
:100470000146204601F085F92046BDE810400121E3
:1004800001F0F0B910B5012240F22551944801F075
:1004900088FA90482721001F017000214170817067
:1004A0000121C170BDE8104000F001BE0121080229
:1004B00001F090B810B58AB000244FF44030CDE977
:1004C0000640089406A8099401F093FE00948DF864
:1004D00004400120029403940494824C8DF805009A
:1004E0008DF814006946204601F058FE06230122CB
:1004F0001021204601F0C7FE012001F0AAFE0121D3
:10050000204601F08DFE0AB010BD10B5012108464D
:1005100001F038F86F480C210322016002210171BB
:10052000002181714271C1716F4C0146204600F07B
:1005300071FE07220221204600F0E0FE204607223D
:10054000BDE81040032100F0D9BE10B50121042000
:1005500001F018F85F48C0210322016002210171F7
:10056000002181714271C1715B4C0146204600F04F
:1005700051FE08220721204600F0C0FE2046082236
:10058000BDE81040062100F0B9BE10B501212020C1
:1005900001F020F851484FF416510C22016000215F
:1005A0008180C180018142818181504C0146204679
:1005B00001F0E7F82046BDE81040012101F052B9F2
:1005C00010B50121480400F0FBFF44484FF41651D8
:1005D0000C22016000218180C180018142818181E2
:1005E000434C0146204601F0CCF82046BDE81040BF
:1005F000012101F037B910B53E4C204601F06CFFE7
:1006000036494FF02060103101F1100C0860374876
:100610000022001D48602F480F3888604020C860C5
:10062000012083028CE80D000302CA61C1E908239E
:1006300043048B62C1E90B204A638A63024680212E
:100640002A4801F0A6F90121880500F09BFF234903
:100650002046103101F0C8FF0021204601F0FDFFC7
:1006600001221021204647E020436F6E66696775BE
:1006700072696E67204261636B75702061636365A8
:1006800073733A00000C0240205254432077616B90
:1006900065757020636F6E66696775726174696FE6
:1006A0006E00000052544320496E7465727275707A
:1006B0007420436F6E66696775726174696F6E004E
:1006C00045786365637574696E67204953522E2EB1
:1006D0002E2E0000100000200008024078000020AC
:1006E000004800400020014000000240001401408A
:1006F00000440040B864024002F024F82046012281
:10070000BDE81040082102F01DB810B501210820F5
:1007100000F038FFFF484FF4804101600121017172
:100720000021817103224271C1710146BDE8104070
:10073000F94800F06FBDF7481021001F017000213B
:10074000417081700121C17000F0B1BC70B5F34CF3
:10075000F34D2146284602F00BF8002812D0ED4A4E
:10076000103A10785070EF4E0121304601F075FFBD
:100770002146284602F01FF83046BDE870400021AF
:1007800001F06BBF70BD10B502F070F9FFF75CFDB2
:10079000FFF765FDFFF7BAFD4FF4804002F012FE4F
:1007A0004FF4806002F0EBFD012000F0DFFEFFF768
:1007B00080FD012002F0CBF8012002F0EBFB0128C4
:1007C000FAD110BD00214FF6FF720020401C80B20C
:1007D0009042FBD30020401C80B29042FBD3491CC6
:1007E00089B22029F1D3704701B54FF6FF722CE092
:1007F00000210020401C80B29042FBD30020401C0E
:1008000080B29042FBD30020401C80B29042FBD3C8
:100810000020401C80B29042FBD30020401C80B2DC
:100820009042FBD30020401C80B29042FBD30020BA
:10083000401C80B29042FBD30020401C80B290420A
:10084000FBD3491C89B22029D3D30098411E0091C3
:10085000CED208BD00B585B04821009000208DF8AB
:1008600009008DF8080008208DF80A005F208DF837
:100870000C008DF80D1045218DF80E104C218DF8CF
:100880000F108DF810104F218DF811108DF80B00FE
:100890008DF812006946A44801F018FA05B000BDB1
:1008A00000B585B04821009000208DF809008DF832
:1008B000080008208DF80A005F208DF80C008DF8E4
:1008C0000D1045218DF80E104C218DF80F108DF86C
:1008D00010104F218DF811108DF80B008DF81200BB
:1008E0006946924801F0F2F9D8E72DE9FC4101216F
:1008F0008F06384600F046FEDFF8348209220521D3
:10090000404600F0FBFC09220621404600F0F6FCC0
:1009100002268DF8046060208DF8056000240090A8
:100920008DF8064001258DF807506946404600F0D5
:1009300071FC0121384600F043FE7B4F384601F040
:1009400083F87C4801F068F97A4805218471C47104
:10095000047244728472C4728470C470017107217D
:10096000417106800146384601F081F871480E2138
:100970000C308172C4720573048044808480C4800A
:100980000481457301F0E7F86A4840F223116830AA
:100990000122C0E9001544720472857202213846B2
:1009A00001F022FBBDE8FC812DE9FC410121022080
:1009B00000F0E8FD5E4F09220821384600F09EFC59
:1009C00009221146384600F099FC02268DF8046091
:1009D0004FF440708DF80560002400908DF80640BB
:1009E00001258DF807506946384600F013FC0121B7
:1009F000480600F0E5FD4D4F384601F025F84D481A
:100A000001F00AF94B4805218471C47104724472E3
:100A10008472C4728470C4700171072141710680B0
:100A20000146384601F023F842480C308472C47203
:100A30000573048044808480C4800481457301F080
:100A40008AF83C4840F2213168300122C0E90015A3
:100A50004472047285720221384601F0C5FAA1E79A
:100A600038B514208DF8000000248DF801400125D0
:100A70008DF802508DF80350684600F018FB4020B6
:100A80008DF800008DF801408DF802408DF803507C
:100A9000684600F00CFB38BD2DED048BB6EE0C9AC9
:100AA0004FF0200B00F09EF9FFF7DAFFFFF7AFFCE5
:100AB000FFF7CDFCFFF7E6FCFFF7A9FCFFF780FD91
:100AC000FFF7C5FCFFF761FDFFF7DCFCFFF71DFD3D
:100AD000FFF71BFEFFF739FDFFF78DFDFFF72BFE3C
:100AE000FFF7E4FCFFF7E6FCFFF74DFEDFF828A078
:100AF0004FF480494946504600F0F1FB0EA002F049
:100B000047FDFFF75FFE034E0D48103EB18800F031
:100B1000CFFE17E010000020000C024000880020EB
:100B200088600240B86402400068004000640040F1
:100B3000000402405C000020426567696E203A00B4
:100B400000480040FFF73EFE60A002F021FD0025B6
:100B500040F2231800247827FFF726FFFFF7C5FE91
:100B60004046FFF79DFEFFF72DFE21465BA002F0F9
:100B70000FFDB07841287DD05CA002F009FD404611
:100B8000FFF768FEFFF71EFEF078412873D05DA0E6
:100B900002F0FEFC0420FFF727FE641C052CDBDBC3
:100BA000002000F0E3FC002001F0D1FE5BA002F089
:100BB000EFFC4C4649465746504600F092FBFFF783
:100BC00001FE2146384600F08AFB6D1C022DC1DB78
:100BD00056A002F0DDFC5B4C204601F08EFB0221AA
:100BE000204601F052FC0028F9D0204601F0B7FB66
:100BF00000EE100AB8EE400A86ED020A96ED020AEF
:100C0000DFED510A20EE200ADFED500A20EE200A27
:100C100086ED020A96ED020ADFED4D0A584680EE97
:100C2000201A86ED021A03F04DFF96ED020A41EC00
:100C3000180B30EE490A10EE100A04F099F89FEDF7
:100C4000451B53EC112B03F0E5FD53EC182B03F07F
:100C500039FD03F005FD00EE100A86ED020A96ED5F
:100C6000020A10EE100A04F083F841EC100B53EC6A
:100C7000102B01E018E01BE038A002F089FC0A20EC
:100C80007070717839A002F083FC3C4D0121284638
:100C900001F0E3FC0021284601F0DFFC3848FFF7B3
:100CA00094FB0520B08097E70024254635A002E09C
:100CB000002425463FA002F06BFC01F073FEB770E4
:100CC000F7700420FFF790FD4AE70000757361722A
:100CD00074206661696C656400000000202020209B
:100CE0002020693D25642020202020002020202075
:100CF0002063616E31206661696C6564202020206C
:100D0000202000002020202063616E32206661696F
:100D10006C6564202020202020000000726573652F
:100D200074206D6173746572000000007265636FFA
:100D30006E666967757265206173206D6173746595
:100D4000720000000020014000404E450000803944
:100D500000007A447B14AE47E17A643F54656D70BD
:100D6000203D202566202020200000006D656D209C
:100D7000626C6F636B3D202564000000B864024024
:100D80008096980041636B2052656365697665645F
:100D90002066726F6D205072696D6172792073796F
:100DA0007374656D207468726F7567682063616E17
:100DB000310D0A0041636B20526563656976656495
:100DC0002066726F6D205072696D6172792073793F
:100DD0007374656D207468726F7567682063616EE7
:100DE000320D0A0030B5012189B0084600F0CAFB77
:100DF0000121480400F0E4FB02208DF804008DF886
:100E0000050000248DF8064001208DF8070004201D
:100E10002B4D00906946284600F0FCF9082100910E
:100E20006946284600F0F6F91021009169462846E7
:100E300000F0F0F907220221284600F05FFA0722AD
:100E40000321284600F05AFA07220421284600F020
:100E500055FA4FF416500290ADF810400C20194D81
:100E6000ADF80C40ADF81200ADF80E40ADF81440EE
:100E700002A9284600F085FC0121284600F0F2FC7A
:100E8000E814ADF81800ADF81C40ADF81A40ADF804
:100E90001E4006A9284600F0D1FC09B030BD7047BD
:100EA00070B5084D0446C1B2284600F001FD40214E
:100EB000284600F08EFD0028F9D0204670BD0000C5
:100EC00000000240004400400948804709480047AC
:100ED000FEE7FEE7FEE7FEE7FEE7FEE7FEE7FEE7EA
:100EE000FEE7FEE704480549054A064B7047000047
:100EF000B3340008890100083801002038070020B9
:100F000038030020380300207047FEE7FEE7FEE7C5
:100F1000FEE7704770477047704710B5434C40F28A
:100F20002551204600F05FFD002817D0204600F034
:100F3000C3FC01463EA002F02BFB204600F0BCFCA7
:100F4000052804D0BDE810403CA002F021BB3CA025
:100F500002F01EFBBDE8104001F024BD10BD10B52D
:100F60003A4C86B06A460021204600F057FF384AC6
:100F70000099118037499DF80B00087036499DF89B
:100F80000C00087035499DF80D00087034499DF833
:100F90000E00087033499DF80F00087032499DF823
:100FA0001000087031499DF81100087030499DF813
:100FB000120008700221204601F09FF82D490120FF
:100FC000087006B010BD10B52B4C86B06A460021E3
:100FD000204600F023FF294A0099118028499DF8F6
:100FE0000B00087027499DF80C00087026499DF8F1
:100FF0000D00087025499DF80E00087024499DF8E1
:101000000F00087023499DF81000087022499DF8D0
:101010001100087021499DF8120008700221204635
:1010200001F06BF81E4901200870CAE70048004033
:10103000446174613A2025640000000043616E0041
:10104000736C656570202020202E00000064004035
:1010500018000020020000201A0000201B000020C1
:101060001C0000201D0000201E0000201F0000208A
:10107000200000202B0000200068004022000020FB
:10108000030000202400002025000020260000206E
:101090002700002028000020290000202A0000202E
:1010A0002C0000202849084328490860704730B5C3
:1010B0000F23C27801780125FAB1244A126801F1A0
:1010C000E02102F4E062C2F5E062C2F30722C2F15D
:1010D0000404D3404278A24084781C401443220187
:1010E00081F80024007800F01F018D404009800045
:1010F00000F1E020C0F8005130BD01F01F00854034
:101100004809800000F1E020C0F8805130BD104A4D
:10111000114001430D48001F016070470B4A121D2A
:101120000029116801D0014300E08143116070473C
:101130004FF0E0210428086903D020F00400086182
:10114000704740F00400FAE70000FA050CED00E0FB
:1011500080FFFF1F714910B5884206D10121084662
:1011600000F042FA002101204FE06D49884206D18B
:101170000121022000F038FA0021022045E06949EF
:10118000884206D10121042000F02EFA002104201B
:101190003BE06549884206D10121082000F024FA8D
:1011A0000021082031E06149884206D10121102048
:1011B00000F01AFA0021102027E05D49884206D18C
:1011C0000121202000F010FA002120201DE05949C3
:1011D000884206D10121402000F006FA002140207B
:1011E00013E05549884206D10121802000F0FCF926
:1011F0000021802009E0514988420AD1841501214B
:10120000204600F0F1F900212046BDE8104000F032
:10121000EBB910BDF0B5002201274FF0030C0B68AD
:1012200007FA02F52B40AB422CD1066853000CFAAA
:1012300003F4A64306600E79D0F800E09E4046EA2B
:101240000E0606600E79012E01D0022E12D186689C
:10125000A64386604E79D0F808E09E4046EA0E0626
:1012600086604668AE43466045688E799640B6B261
:1012700035434560C568A543C560CC799C40C368CB
:101280001C43C460521C102AC9D3F0BD4FF6FF7135
:1012900001600021017141718171C171704708B510
:1012A00041F480320092C261C1610099C161C1699B
:1012B000C069009008BD0246002012690A4200D0B1
:1012C00001207047006980B27047024600205269D1
:1012D0000A4200D001207047406980B27047018304
:1012E0007047418370470AB101837047418370475B
:1012F0004161704742694A40426170474B07DB0ECB
:101300009A40C90810B500EB8100016A0F249C4087
:10131000A1430162016A1143016210BD0000024055
:101320000004024000080240000C0240001002408D
:101330000014024000180240001C0240002002403D
:10134000EA48016841F001010160E84A00210832E1
:1013500011600268E64B1A400260031DE54A1A60FC
:10136000026822F480220260E0480C30016070477D
:10137000DE490022891C0A7008707047024600206E
:10138000510901290CD002290CD0D84974310968BF
:1013900002F01F02012393400B4200D0012070474E
:1013A000D249F4E7D1497031F1E718B500204FF484
:1013B000A06400903120FFF7E1FF0099491C0091E3
:1013C000A14201D00028F5D03120FFF7D7FF002837
:1013D00000D0012018BDC54A116821F0F80141EA8A
:1013E000C00010607047C44908607047BF490022C0
:1013F00070310A700A70012802D0042801D105203A
:1014000008707047BD490860704741EA82115A0868
:1014100010B5BB4B029C03EB02421143014341EA6E
:101420000460B249091D086010BDB34908667047E1
:10143000800140EA0170AD49843108607047AE49CF
:1014400088667047AC49C8647047A84B08331A686F
:10145000084322F0EC62104318607047A34B083336
:101460001A68084322F078421043186070479F4A78
:101470000832116821F003010143116070479B4855
:101480000830006800F00C007047984A0832116874
:1014900021F0F001014311607047944A083211684D
:1014A00021F4E051014311607047904A08321168FD
:1014B00021F4604141EAC0001060704770B58B4B69
:1014C000083319688F4C11F00C0104D06610042900
:1014D00003D0082903D004601BE0066019E0834AAA
:1014E000121D1168C1F38055116801F03F0115B15B
:1014F000B6FBF1F101E0B4FBF1F114681268C4F33A
:1015000088146143C2F30142521C5200B1FBF2F154
:10151000016019680F2202EA11117B4A545C0168CC
:10152000E14041601C68072505EA9424145D21FA16
:1015300004F484601B6805EA5333D25CD140C16077
:1015400070BDC0F30121032908D1684B0833196825
:101550006E4A21F4F81102400A431A60634970315F
:101560000A68C0F30B0002430A60704763494439BC
:101570000860704761494039086070475E49C1F8AA
:101580005C017047594A30320029116801D001438B
:1015900000E0814311607047544A343200291168D9
:1015A00001D0014300E08143116070474F4A383257
:1015B0000029116801D0014300E0814311607047A8
:1015C0004A4A40320029116801D0014300E08143BA
:1015D00011607047454A44320029116801D0014327
:1015E00000E0814311607047404A103200291168C1
:1015F00001D0014300E08143116070473B4A14323F
:101600000029116801D0014300E081431160704757
:10161000364A18320029116801D0014300E08143A5
:1016200011607047314A20320029116801D001430E
:1016300000E08143116070472C4A24320029116870
:1016400001D0014300E0814311607047274A5032C6
:101650000029116801D0014300E081431160704707
:10166000224A54320029116801D0014300E081432D
:10167000116070471D4A58320029116801D001439A
:1016800000E0814311607047184A603200291168F8
:1016900001D0014300E0814311607047134A643276
:1016A0000029116801D0014300E0814311607047B7
:1016B0000E4A0D320029117801D0014300E0814328
:1016C0001170704709487430016841F08071016001
:1016D00070470146054A00200C3212680A4200D0C9
:1016E0000120704701490E310870704700380240F0
:1016F000FFFFF6FE1030002400004742800E4742F4
:101700000000FFFF0024F40034000020FFFCFF0F66
:10171000C74910B5884206D101211020FFF78CFF80
:101720000021102028E0C349884202D101214C0445
:1017300010E0C149884202D101218C040AE0BF496E
:10174000884202D10121CC0404E0BD4988420AD17B
:1017500001210C052046FFF765FF2046BDE810403B
:101760000021FFF75FBFB749884209D1012120203E
:10177000FFF762FF00212020BDE81040FFF75CBFAB
:1017800010BD7FB50446008A0D46C98820F440503C
:1017900001432182A08941F20C618843A9882A89EA
:1017A00011436A8902431143A181A08A20F4407148
:1017B000A8890843A0826846FFF780FE9C488442BF
:1017C00002D0A048844201D1039800E00298A18988
:1017D000090400EBC00101EB0010296801D54900A4
:1017E00000E08900B0FBF1F06422B0FBF2F10901E6
:1017F0000B096FF018056B4300EB8300A3891D04F0
:101800004FF0320306D503EBC000B0FBF2F000F05E
:10181000070005E003EB0010B0FBF2F000F00F0052
:10182000084320817FBD4FF4165101600021818063
:10183000C18001810C2242818181704710B5028AEA
:101840004C8822F470630A8822438C88C9880C4330
:1018500022431A43028210BD002101804180818011
:10186000C18070470029818902D041F4005101E014
:1018700021F4005181817047028B02F47F42028380
:10188000028B0A43028370470029818902D041F408
:10189000004101E0C1F30E01818170470029818A76
:1018A00002D041F4006101E021F4006181827047BF
:1018B000C1F30801818070478088C0F30800704739
:1018C000028A22F00F020282028A0A4302827047D1
:1018D0000029818902D041F0020101E021F00201DA
:1018E00081817047828922F40062828182890A4361
:1018F00082817047028A22F020020282028A0A4311
:10190000028270470029018A02D041F4804101E03F
:1019100021F4804101827047818941F00101818178
:1019200070470029818A02D041F0080101E021F0CE
:10193000080181827047028BD2B20283028B42EA95
:101940000121018370470029818A02D041F02001E2
:1019500001E021F02001818270470029818A02D0B4
:1019600041F0100101E021F0100181827047828A6C
:1019700022F004028282828A0A438282704700290E
:10198000818A02D041F0020101E021F0020181824E
:101990007047002A828A01D00A4300E08A4382828B
:1019A000704710B5C1F3421301F01F040121A1409B
:1019B000012B07D0022B07D01430002A026805D073
:1019C0000A4304E00C30F8E71030F6E78A4302607F
:1019D00010BD0246002012880A4200D00120704744
:1019E000C9430180704770B501F01F05012600242E
:1019F000C1F3421306FA05F2012B0FD0022B0FD0D0
:101A0000838A4FEA11210088134206FA01F600EAA0
:101A1000060001D000B10124204670BD8389F0E7A3
:101A2000038AEEE70A0A01219140C9430180704709
:101A3000001001400044004000480040004C0040BD
:101A40000050004000140140FE4910B588424FF09C
:101A5000010101D14C0601E04FF080642046FFF700
:101A6000E1FD2046BDE810400021FFF7DBBD10B5C9
:101A70000368002223F002030360036843F00103BC
:101A800003604FF6FF7300E0521C4468E40701D185
:101A90009A42F9D14268D2073ED08A79012A026877
:101AA0003CD022F080020260CA79012A026838D054
:101AB00022F0400202600A7A012A026834D022F041
:101AC000200202604A7A012A026830D022F0100215
:101AD00002608A7A012A02682CD022F00802026091
:101AE000CA7A012A026828D022F0040202608A78A9
:101AF000CC78920742EA04620C7942EA04424C79BB
:101B0000098842EA0452491E0A43C261016821F071
:101B100001010160002114E0002010BD42F08002AC
:101B2000C1E742F04002C5E742F02002C9E742F0B7
:101B30001002CDE742F00802D1E742F00402D5E7F7
:101B4000491C4268D20701D09942F9D14068C007C8
:101B5000E2D1012010BDF0B5827ABB4D0121914048
:101B60002A6842F001022A60B74E1C3632688A4366
:101B70003260B54A047BB54B0C32A4B914688C436F
:101B800014604488C78844EA0744877A03EBC70790
:101B9000C7F840460488878844EA0744877A03EBFD
:101BA000C707C7F84446047B012C12D114680C43C4
:101BB0001460847A026803EBC4044FEA3242C4F82A
:101BC0004026847A426803EBC4034FEA3242C3F8EA
:101BD00044269D4AC37A121D002B136806D00B437E
:101BE0001360994A0389143213B104E08B43F7E779
:101BF00013688B4313600389012B02D113680B43D5
:101C00001360407B012802D13068084330602868A7
:101C100020F001002860F0BD00218171C1710172C6
:101C200041728172C1728170C17003210171022100
:101C3000417101210180704783490A6842F0010225
:101C40000A600A6843F60E739A430A600A6842EA19
:101C500000200860086820F0010008607047002933
:101C6000016802D041F4803101E021F4803101604B
:101C700070470029016813D041F080010160D0F85D
:101C8000841141F48071C0F88411D0F8941141F4AA
:101C90008071C0F89411D0F8A41141F4807112E061
:101CA00021F080010160D0F8841121F48071C0F826
:101CB0008411D0F8941121F48071C0F89411D0F8F7
:101CC000A41121F48071C0F8A411704770B5826826
:101CD00053015F4A01D5002303E083681B014DD502
:101CE00001231370DBB200EB0313D3F8804104F03F
:101CF0000104C3F8804113780C7A00EB0313E4B3BA
:101D0000D3F880514E6825434C7A44EAC6042543F3
:101D1000C3F880518B7A03F00F038B72137800EBBA
:101D20000313D3F8844124F00F04C3F884411378DB
:101D300000EB0313D3F884418D7A2C43C3F884411C
:101D4000CB7ACC6843EA0423147800EB0414C4F87B
:101D50008831CB7B096943EA0121137800EB031337
:101D6000C3F88C11117800EB0110D0F8801141F00C
:101D70000101C0F88011107870BD07E08368DB00B6
:101D800001D50223ADE704201070F4E7D3F88041B9
:101D90004D7A2C430D8844EA4554C3F88041B9E795
:101DA000002221B1012905D0022906D112E0826862
:101DB000284801E08268284802402849501A8A428F
:101DC00014D00ADCA2B16FF0806010180FD0022886
:101DD0000CD10FE082682248EEE7B0F5007F09D011
:101DE0002049401803D0B0F5003F03D000207047D1
:101DF000022070470120704741B101290AD0022911
:101E000003D1816841F4000181607047816841F02D
:101E10008001F9E7816841F40041F5E710B500EB76
:101E20000113D3F8B04114F004041472D3F8B04194
:101E300047D0E4085460D3F8B04104F0020454726F
:101E400012E00000006400400066004000600040B6
:101E50004400002003000004000300080001000803
:101E6000000003100001FFF7D3F8B44104F00F04A1
:101E70009472D3F8B441240AD474D3F8B841D4721C
:101E8000D3F8B841240A1473D3F8B841240C54731E
:101E9000D3F8B841240E9473D3F8BC41D473D3F86B
:101EA000BC41240A1474D3F8BC41240C5474D3F8F4
:101EB000BC311B0E937439B1016941F020010161FD
:101EC00010BD640D1460B6E7C16841F02001C16027
:101ED00010BD21B1016941F0200101617047C16865
:101EE00041F02001C16070470246002029B101295C
:101EF00002D1106900F003007047D068FAE70023B0
:101F00004FF6FF7221B1012917D0022924D03AE0FF
:101F1000016821F0020141F00101016000E0521E60
:101F2000416801F00301012901D0002AF7D140687E
:101F300000F00300012823D124E0016821F003010F
:101F4000016000E0521E4168890701D0002AF9D1E2
:101F50004068800714D115E0016821F0010141F0CB
:101F60000201016000E0521E416801F003010229F4
:101F700001D0002AF7D1406800F00300022801D008
:101F8000002300E00123184670470268002122F078
:101F9000010242F002020260406800F003000228E1
:101FA00000D101210846704702684FF6FF710023F7
:101FB00022F00202026000E0491E4268920701D549
:101FC0000029F9D14068800700D4012318467047E2
:101FD0008069C0F30210000170478069000E7047ED
:101FE0008069C0F307407047002A426901D00A4364
:101FF00000E08A43426170470246002011F4700FEE
:1020000003D0926904E001207047CB0104D55268E7
:102010000A401103F7D170470B0101D59268F7E729
:102020008B0101D5D268F3E71269F1E7534A914277
:1020300002D1002181617047C1F313028B0101D5E8
:10204000C26070474B0101D502617047090101D59B
:1020500082607047426070470246002053690B421D
:102060004AD0B1F5807F3BD013DC08292ED007DCA5
:10207000012926D0022927D004293DD1D0682BE0A0
:10208000102925D0202926D0402935D110691021CA
:1020900030E0B1F5004F2BD00BDCB1F5007F22D042
:1020A000B1F5806F22D0B1F5006F25D19069702114
:1020B00020E0B1F5803F11D0B1F5003F1CD1506850
:1020C000E5E790682E4915E0D06802E0D068DEE7C9
:1020D000106903210EE0106908210BE05068FBE74E
:1020E0009069012106E09069022103E0906900E017
:1020F0005068042100F03BB8704730B50823102425
:102100000422B1F5007F1DD010DC202929D007DC86
:10211000012921D0042922D0082900D1C46030BD72
:10212000402920D0B1F5807FF9D10BE00025B1F531
:10213000004F06D008DCB1F5806F03D0B1F5006F19
:10214000EDD18561426030BDB1F5803F0DD0B1F574
:10215000003FF8D1446030BD0949816030BDC360A3
:1021600030BD036130BD046130BD436030BD024607
:1021700000200A4200D00120704700007000F030BB
:102180000101010010B501210C022046FFF754FAAD
:102190002046BDE810400021FFF74EBA30B5426836
:1021A000C84B0C791A400B6842EA0422134343607F
:1021B0008268C54B4D791A40D1E9034323438C68AB
:1021C00044EA4504234313438360C26A097D22F431
:1021D0007002491EC9B242EA0151C16230BD0021FC
:1021E0000160017141718160C1600161012101756E
:1021F0007047B64B10B5D3F80423B5490A40D0E96F
:1022000000142143D0E90240044321431143C3F8A1
:10221000041310BD0021016041608160C1607047FE
:102220000029816802D041F0010101E021F00101A3
:10223000816070474268A74B1A400A43426070476A
:10224000416282627047426822F01F020A43426084
:1022500070479E490028D1F8040302D040F40000E2
:1022600001E020F40000C1F80403704797490028FA
:10227000D1F8040302D040F4800001E020F4800093
:10228000C1F80403704770B5072609290AD9C56843
:10229000A1F10A0404EB4404A640B543A3401D4346
:1022A000C56007E0056901EB4104A640B543A340C2
:1022B0001D4305611F23072A09D2446B521E02EBFE
:1022C000820293409C4391400C43446370BD0D2AAD
:1022D00009D2046BD21F02EB820293409C439140CF
:1022E0000C43046370BDC46A0D3A02EB8202934052
:1022F0009C4391400C43C46270BD816841F08041B1
:1023000081607047014600208968490200D501209C
:1023100070470029816802D041F4806101E021F416
:102320008061816070470029816802D041F002011C
:1023300001E021F00201816070474268491E22F4E9
:10234000604242EA4131416070470029416802D051
:1023500041F4006101E021F4006141607047C06C0C
:1023600080B270475948D0F8080370470029816847
:1023700002D041F4807101E021F4807181607047E6
:102380000029816802D041F4007101E021F400715C
:10239000816070474D490028D1F8040302D040F411
:1023A000005001E020F40050C1F80403704770B5FC
:1023B000072609290AD9C568A1F10A0404EB4404D7
:1023C000A640B543A3401D43C56007E0056901EB86
:1023D0004104A640B543A3401D430561836BC3F38D
:1023E0000154121B921C02EB82021F249440A3434F
:1023F00091400B43836370BD826B491E22F44012EF
:1024000042EA01518163704708B5084400900260B8
:1024100008BD826822F470220A4382607047826895
:1024200022F440120A4382607047816841F48001BF
:1024300081607047014600208968490200D501206B
:1024400070470029416802D041F4806101E021F425
:102450008061416070470029416802D041F4805199
:1024600001E021F480514160704708B508442830EC
:102470000090006880B208BD01238B4041680AB11A
:10248000194300E0994341607047024600201268FA
:102490000A4200D001207047C9430160704730B53F
:1024A0000246002053680C0A01258D4011682B401C
:1024B000214202D0002B00D0012030BD6FEA112153
:1024C00001607047FFFEFFFCFDF7FFC000200140E8
:1024D000E030FCFFFFFD3FFF2DE9F043016821F0F4
:1024E000010101600021016041608160C160016102
:1024F00021214161B849B84A3D251039904202D1A5
:102500008D60BDE8F083B44A4FF47466183290428F
:1025100001D18E60F5E7B04A4FF474173032904223
:1025200001D18F60EDE7AC4A4FF0746C48329042B5
:1025300002D1C1F808C0E4E7A74BA84A603398422B
:1025400001D1CA60DDE7A44CA54B7834A04201D18B
:10255000CB60D6E7DFF88082A24C08F190084045B6
:1025600001D1CC60CDE7DFF870824FF03D5908F122
:10257000A808404502D1C1F80C90C2E79A49DFF89B
:1025800068820839404501D10D60BAE7964D18358B
:10259000A84201D10E60B4E7934D3035A84201D175
:1025A0000F60AEE7904D4835A84202D1C1F800C097
:1025B000A7E78D4D8C496035091FA84201D10A60FB
:1025C0009FE7894A7832904201D10B6099E7864AA9
:1025D0009032904201D10C6093E7834AA832904236
:1025E0008FD1C1F800908CE730B503687F4ACC6882
:1025F00013400A682243D1E905452C432243CC69A4
:1026000022430C6A22434C6A22438C6A22434C6B5D
:1026100022438C6B22431A430260426922F0070373
:10262000D1E90B2422431A4342610A6942604A6895
:1026300082608968C16030BD0021016041608160B5
:10264000C160016141618161C16101624162816278
:10265000C16201634163816370470029016802D050
:1026600041F0010101E021F0010101607047002902
:10267000016802D041F4004101E021F40041016011
:1026800070470029016802D041F0200101E021F0EB
:1026900020010160704741607047406880B2704718
:1026A000002A026802D042F4002201E022F4002253
:1026B0000260016170470029016802D041F4802165
:1026C00001E021F48021016070470AB10161704787
:1026D000C1607047014600200968090300D5012048
:1026E0007047014600200968C90700D001207047E3
:1026F000406900F03800704702463B4B00209A4288
:1027000002D2354A103A01E0374A103A8B0001D51F
:10271000526800E01268364B1A400A4200D001208D
:102720007047314A904202D22B48103801E02E48BF
:1027300010382F4A8B0001EA020101D5C1607047B1
:10274000816070470B0607D5436912B143F08003DF
:1027500001E023F080034361802908D0002A026849
:1027600001F01E0101D00A4300E08A430260704775
:1027700030B51D4A0024904202D2174A103A01E0B7
:10278000194A103A1B4B194205D01E2303EAD125E2
:1027900003682B4002E0406900F08003880001D507
:1027A000506800E01068124A1040084201D003B19E
:1027B0000124204630BD0C4A904202D2064810380F
:1027C00001E0094810380A4A8B0001EA020101D5EC
:1027D000C160704781607047106002403D0000207A
:1027E000400F002000003D20106402403F801CF09C
:1027F0007D0F7D0F3C0F3C0F374900200860091DFD
:102800000860091D0860091D086033493348143108
:102810000860704730B5304A8379016853B3136854
:102820008B431360111D0B680468A3430B6001798F
:1028300011440B68046823430B60274B0833196865
:102840000468A14319601C1D21680568A943216023
:102850004179102905D011440A68006802430A60D2
:1028600030BD19680268114319602168006801438E
:10287000216030BD0079104402688A43026030BD97
:102880000021016001710C2242718171704712496F
:1028900010310A6802430A60704701460E4A002060
:1028A000143212680A4200D0012070470A491431DC
:1028B00008607047084A014600201268064B0A402B
:1028C00014331B680B4202D0002A00D0012070474D
:1028D0000149143108607047003C0140FFFF7F0050
:1028E0000D49086070470C49486070470A49886084
:1028F000704709494AF6AA200860704706494CF615
:10290000CC4008607047044A01460020D2680A4261
:1029100000D00120704700000030004010B50121B8
:102920000C072046FEF77EFE2046BDE81040002141
:10293000FEF778BE2A49086270472A4A116821F0DA
:10294000E00101431160704725490861704724493F
:10295000C1F8A00070472249C1F8A400704721497E
:102960000028086803D040F480400860704720F4D5
:102970008040FAE71A49486270471A4B1A6822F0F9
:10298000030202431A601848026842F0040202601F
:10299000012905D020BF016821F0040101607047C2
:1029A00030BFF8E70F48016841F004010160016899
:1029B00041F0020101600C48016841F0040101602E
:1029C00030BF7047074A0146002052680A4200D0D3
:1029D0000120704703490A6842EA80000860704796
:1029E00000000E420070004010ED00E018B500201D
:1029F000FC4B0090CA20186053201860F949183920
:102A0000086820F0A00008604FF400340868009ABD
:102A100000F02000521C0092A24201D00028F5D004
:102A20000868800601D5012000E00020FF21196020
:102A300018BD08B5EB490020183900900868400619
:102A400012D44FF0FF3008608B130868009A00F032
:102A50004000521C00929A4201D00028F5D008682C
:102A6000400601D4002008BD012008BD78B500252E
:102A7000DC4ECA2000952C46306053203060FFF7B2
:102A8000D8FFA0B3D74824380560D64942F20110D8
:102A9000203908600B1D186800F0070018608C13BF
:102AA000191D0868009A00F00400521C0092A2420E
:102AB00001D00028F5D0086840071CD518681D60B3
:102AC000C84A4FF6FF70103A1060121FC6481060D7
:102AD000C4480C380560001D0560001D05600D60D0
:102AE000C0481C300560FFF781FF20B10124FF20A2
:102AF0003060204678BD0024F9E7BA4818380168EC
:102B000021F080010160704770B5B64E0446002583
:102B1000CA20306053203060FFF78BFFA8B1B14866
:102B20001C38016821F040010160016822681143EE
:102B30000160AC48A168143801600168A28841EACC
:102B400002410160FFF7D9FF0125FF2030602846D0
:102B500070BD002101607F214160FF2181607047CD
:102B6000A04908B1FF2002E0CA2008605320086095
:102B7000704770B59B4E05460024CA203060532034
:102B80003060FFF756FF60B196481C38016815B1F8
:102B900041F0100101E021F010010160FFF7ADFFED
:102BA0000124FF203060204670BD8E4ACA2111608A
:102BB000532111608B491C390028086802D040F06D
:102BC000200001E000F0DF000860FF201060704787
:102BD00070B50C460026854B0100207819683246F6
:102BE0004FEA416104D000292BDA00F003FC29E010
:102BF000002900DBE27000F0F1FB0504607800F0D2
:102C0000EDFB45EA0025A07800F0E8FB0543E078FD
:102C100045EA0045734CCA20206053202060FFF72E
:102C200008FF50B172480540704808380560FFF74A
:102C300064FFFFF7DBFE00B10126FF202060304675
:102C400070BDE270A078217840EA01456078E178B3
:102C5000000240EA01400543DCE70021C170017039
:102C6000417081707047020010B562480C460168DF
:102C70005F4801EA0001C1F305402070C1F306235B
:102C8000637001F07F03A3704FF0400303EA11412A
:102C9000E1700AD100F0AEFB2070607800F0AAFB72
:102CA0006070A07800F0A6FBA07010BD4D48001D1C
:102CB00000684E49091F0968704770B50C46002628
:102CC000010060780FD000F095FBA07800F092FB37
:102CD000A078E17840EA014560782178000240EA76
:102CE0004130054315E0C10603D520F010000A303D
:102CF0006070E07800F072FB0504607800F06EFB15
:102D000045EA0025A07800F069FB0543207845EAF4
:102D10004035344CCA20206053202060FFF789FEE4
:102D200050B1354805403148001F0560FFF7E5FE0A
:102D3000FFF75CFE00B10126FF202060304670BD29
:102D400001210170817041700021C1707047020043
:102D500010B52A480C460168274801EA00014FEAED
:102D60001140E070C1F30423637001F03F03A370CE
:102D7000C1F3423121700AD100F03CFBE070607871
:102D800000F038FB6070A07800F034FBA07010BD3C
:102D900070B514460D46154A0021002810684FEA08
:102DA000406005D000282BDA207800F023FB28E0D3
:102DB000002800DBE170207800F010FB060460784A
:102DC00000F00CFB46EA0026A07800F007FB064363
:102DD000E07846EA0046207B00F000FB46EA00600F
:102DE0001FE0000024280040FF007F00082800406A
:102DF0007F7F7F00002800403FFFFF000428004045
:102E0000E170207B00F0F6FAA0782178E27840EAC1
:102E100001406178090241EA02410843217B40EA0E
:102E20000160A168084361680843F949CA220A6041
:102E300053220A60B5F5807F04D00A1F1060FF207E
:102E4000086070BDF24A083AF8E70021C1700170CD
:102E5000417081700122816002734160704710B53A
:102E600014460246B1F5807F2AD0E948001F016868
:102E7000C1F305402070C1F30623637001F07F03A6
:102E8000A370402303EA1143E370C1F30563237386
:102E900001F0804301F08031C4E90113002A0ED112
:102EA00000F0A8FA2070607800F0A4FA6070A078B2
:102EB00000F0A0FAA070207B00F09CFA207310BDF7
:102EC000D3480838D3E738B50022D14C0092CA2243
:102ED000226053222260CE4A1C3A0029116802D097
:102EE0000143116012E081431160C94A183A9513F9
:102EF0001168009B01EA10215B1C0093AB4201D0DA
:102F00000029F5D0116811EA102000D00120FF211E
:102F1000216038BD10B5BE4BCA241C6053241C6010
:102F20001143B0F5807F05D0B94824300160FF20FF
:102F3000186010BDB6482030F8E7B0F5807F05D0A6
:102F4000B34824300068C0F30E007047B04820300A
:102F5000F8E7AF4ACA21116053211160AC491C390E
:102F60000B6823F007030B600B6803430B60FF2023
:102F700010607047A649CA220A6053220A60A44A18
:102F8000103A1060FF2008607047A14810380068B0
:102F900080B2704718B500219D4B0091CA2119607D
:102FA000532119609A491C390028086803D040F45D
:102FB0008060086014E020F480600860944918394B
:102FC0008C130868009A00F00400521C0092A24280
:102FD00001D00028F5D00868400701D4002000E0A7
:102FE0000120FF21196018BD894B10B5CA221A6053
:102FF00053221A60864A1C3A146824F48024146010
:103000001468084304431460FF20186010BD804812
:103010001C38006800F4802070477D4B10B5CA2230
:103020001A6053221A607A4A1C3A146824F4E004A5
:1030300014601468084304431460FF20186010BD36
:10304000F0B5734D06460024CA200F462860532071
:103050002860FFF7EEFC30B16D483E430C38066047
:10306000FFF74BFD0124FF2028602046F0BD70B51E
:10307000674E05460024CA20306053203060FFF7B9
:10308000D8FC60B162481C38016815B141F080017C
:1030900001E021F080010160FFF72FFD0124FF20F6
:1030A0003060204670BD5A4ACA2111605321116018
:1030B00057491C390028086802D040F4000001E09C
:1030C00020F400000860FF2010607047504ACA21B9
:1030D0001160532111604E491C390B6823F4002301
:1030E0000B600B6803430B60FF2010607047F0B566
:1030F000474D0023CA242C6053242C60444C183CB8
:103100002668F60308D54FF400362768FF0303D579
:10311000B34201D05B1CF8E72368DB0306D4084305
:103120003B49104318310860012000E00020FF21D6
:103130002960F0BD364B10B51C3B1A6840F60804F8
:10314000A24342EA000209B142F400623048CA21B7
:103150000160532101601A60FF21016010BD70B54C
:103160000D462B4914460C3109682A4A1140284A59
:10317000103212684FF63F731A40C1F305432B70AB
:10318000C1F306236B7001F07F03AB70402303EAA9
:103190001141E9700021E170C2F30421617002F075
:1031A0003F01A170C2F342312170002817D1287865
:1031B00000F020F92870687800F01CF96870A87891
:1031C00000F018F9A870607800F014F96070A07829
:1031D00000F010F9A070207800F00CF9207070BD9C
:1031E0000B48143000687047094A1C3200291168E6
:1031F00003D041EA40001060704721EA4000FAE73E
:10320000034A1C320029116806D0014305E0000082
:10321000242800407F7F7F008143116070477A49F6
:103220000A6822F4C0520A600A6802430A607047C2
:1032300075490A6822F4E0620A600A6802430A607B
:10324000704771490A6822F4C0420A600A68024362
:103250000A6070476C490028086802D040F080007E
:1032600001E020F080000860704767490028086886
:1032700002D020F4004001E040F4004008607047B4
:10328000614A08B5103202EB80000090016008BD71
:103290005D4908B5103101EB80000090006808BD61
:1032A00059490A6822F480320A600A6802430A60B7
:1032B000704755490A6822F400320A600A680243DE
:1032C0000A60704750490A6822F480220A600A683E
:1032D00002430A60704770B54B4C0022CA231C3C65
:1032E000236053232360484B343B1D682D0707D5CB
:1032F0009E141D682D0703D5B24201D0521CF8E779
:103300001A6812070DD4404A383A1268D20608D417
:1033100001433D4814380160FFF768FB10B10120FC
:1033200000E00020FF21216070BD30B5364DCA227B
:103330001C3D2A6053222A60334C20F00402383CA2
:103340000029314B216800F0040004D011432160B2
:103350001968014303E091432160196881431960B2
:10336000FF20286030BD0246274900203439096813
:1033700043F677731940114200D00120704780B2A4
:1033800040F08000C14320483438026802F08002D7
:103390001143016070471C4A0021126802F00403C7
:1033A000194A383A126803EAD03302401A43174BDD
:1033B0001B6803EA101003D00004000C00D00121A8
:1033C00008467047C0F30F1040F08000C1430F481B
:1033D000026802F08002114301607047002103E09F
:1033E000491C0A38C9B2C0B20A28F9D2090740EA12
:1033F00011607047010901EB810100F00F0000EB43
:103400004100C0B270470000402800400C28004036
:103410000CB50022544900920192086840F48030B3
:1034200008604FF4A063086800F400300190009831
:10343000401C0090019810B900989842F3D1086898
:10344000800334D50120019047484030026842F0A3
:10345000805202604548026842F48042026042485D
:10346000083002680260026842F4004202600268AA
:1034700042F4A0520260031F3D4A1A600A6842F0FB
:1034800080720A600A689201FCD53A4940F20562EE
:103490000A60016821F003010160016841F0020146
:1034A00001600168C1F381010229FAD10CBD0192CA
:1034B0000CBD314810B5016841F4700101602A4823
:1034C000016841F001010160274A002108321160C2
:1034D00002682A4B1A400260031D294A1A600268DA
:1034E00022F48022026020480C300160FFF790FF38
:1034F00021494FF000608039086010BD70B51A4D49
:10350000083528681F4B204910F00C0004D05E10CD
:10351000042803D0082803D00B601BE00E6019E0DC
:10352000114A121D1068C0F38054106800F03F006B
:1035300014B1B6FBF0F001E0B3FBF0F013681268D1
:10354000C3F388135843C2F30142521C5200B0FB2C
:10355000F2F0086028680C4AC0F30310121D105CDA
:103560000A68C2400A6070BD003802400070004026
:1035700008544007003C024088ED00E0FFFFF6FEE3
:10358000103000240024F4004800002070470000A0
:103590000FB4044910B503AA029800F0DFFA10BC7A
:1035A0005DF814FB300000202DE9F0410E46044682
:1035B000002020622046E168884730B3252805D0E6
:1035C000D4E901219047206A401CF2E7E1682046D7
:1035D00000278847050018D0A5F14100192802D816
:1035E00020354FF400673246294620462760FCF715
:1035F00005FE40B1012804D0F61D26F00706083666
:10360000D8E7361DD6E72846DAE7206ABDE8F0811C
:103610002DE9F0410646002410687529314616A5AB
:1036200010D0AFF30080002802DA404213A507E073
:1036300031688A0701D512A502E0490704D511A512
:10364000012401E0AFF3008000210A2206F12407E3
:1036500009E0B0FBF2FCB0FBF2F302FB1C003030DF
:1036600078541846491C0028F3D123462A46304690
:10367000BDE8F04100F00CB8000000002D00000093
:103680002B00000020000000704770477047704713
:103690002DE9F0470D4699469246044600F124086C
:1036A0000168880604D5E06921F01001216000E07E
:1036B0000120A84201DD471B00E00027A1697A191B
:1036C00002EB0900081AA0612078C00602D4204647
:1036D000AFF30080002608E0D4E901211AF80600C3
:1036E0009047206A401C761C20624E45F4DB20780F
:1036F000C0060AD52046AFF3008006E0D4E90121D8
:1037000030209047206A401C2062381EA7F1010734
:10371000F4DC07E0D4E9012118F805009047206A9D
:10372000401C2062281EA5F10105F3DC2046AFF302
:1037300000802078000602D50220BDE8F087012035
:10374000FBE770472DE9FF4F0C461E464FF0FF3751
:103750008BB0D2E90001DDF860800A908A46C1F39F
:103760000A5505B93D46002108464FF00000BAF160
:10377000000F00F4400005DA00EB80004FF4400138
:1037800001EA50004FEA9059B9F1010F00DDB94646
:103790000A9850EA4A000ED044F61050A5F2FF35C0
:1037A00045432F14B8F1000F1ED07542291E1EDDAF
:1037B000C9F100021CE0B8F1010F4FF0000001D088
:1037C000302103E0F24305E02154401CB042FBDB12
:1037D00030460022002121540B99C1F80880C1E92C
:1037E00000200FB0BDE8F08FBD1B6D1CDEE74A4620
:1037F00000DA694206A800F065FA06AB93E8070014
:1038000003AB83E8070050460A9900F03FFB8DE8C0
:103810000700A0F500501F3800900398002D09DD27
:1038200042F21F014A46084403A90390684600F08B
:103830009EFD08E0A0F500504A461F3803A90390FA
:10384000684600F0A8FD8DE807000004000C03D0D6
:103850004FF0FF30410800E01046B8F1000F03D0F0
:103860000022009215461EE0751E05D400F08CF96A
:10387000303262556D1EF9D5B3460122084302D09D
:1038800000227F1C04E02078302801D100227F1E16
:10389000002A099786D01DE0112D07DA00F074F98F
:1038A000303262556D1C50EA0102F5D1084302D056
:1038B0000098C8B10EE00021681E05E0235C625C40
:1038C00063542254401E491C8142F7DBAB46A81BBF
:1038D000401E0990002004F80B000B98099AC0F8CC
:1038E0000880C0E9002B7CE711264FF0000859E75B
:1038F0002DE9F04F88460446D21D22F0070191B011
:10390000D1E90001CDE90A0100F07BFE02460B98E7
:10391000C00F01D02D2007E02068810701D52B20A2
:1039200002E0202101EAC000032A099001D0072A01
:1039300005DB03464146204600F084F90BE1207880
:10394000800601D5E06900E00620B8F1650F8146E8
:1039500006D0B8F1660F18D0B8F1670F70D131E01A
:103960000020B9F1110F009001DB112301E009F1F2
:1039700001030AAA01A90CA8FFF7E4FEDDE90C7017
:10398000002609F10105834647E001204B460090DF
:103990004FF000470AAA01A90CA8FFF7D3FEDDE902
:1039A0000DB00C995D46002610B909F101000D1803
:1039B000B9EB050003D4C0F1FF3609F10105A5EB11
:1039C00009002BE0B9F1010F01DA4FF001090020E5
:1039D000B9F1110F0090484601DD112300E00346C4
:1039E0000AAA01A90CA8FFF7ADFEDDE90C704D464F
:1039F00000268346207800070AD4AB4500DA5D46EE
:103A000001A8012D04DD411911F8011C302907D04E
:103A10004F4502DA17F1040F04DA012082460FE065
:103A20006D1EEEE7002F02DCED1B3E4403E0781C28
:103A3000A84200DD7D1CB81B00F1010A4FF00047D1
:103A40002078000703D4AA4501DB4FF0FF3A00219C
:103A5000B7F1004F0DF143088DF8431024D0022038
:103A60002B23002F01DA7F422D230A21021EA0F111
:103A7000010000DC5FB197FBF1FC97FBF1F201FB69
:103A80001C7C17460CF1300C08F801CDEEE7A8F1CC
:103A9000010003702188090501D5452100E0652159
:103AA000A0F1010800F8011C09980FA9A1EB080773
:103AB000FF1D00B10120411901EBEA70A1693844F2
:103AC000081A401EA0612078C00602D42046AFF339
:103AD0000080099828B1D4E901219047206A401C50
:103AE00020622078C00622D52046AFF300801EE079
:103AF000002E04DBB34502DD01A8805D00E030202C
:103B0000D4E901219047206A401C2062761CAAF16A
:103B100001005FEA000A0AD100F032F8C0680168CB
:103B2000405CD4E901219047206A401C2062281E95
:103B3000A5F10105DCDC07E0D4E9012118F8010B4F
:103B40009047206A401C2062381EA7F10107F3DC71
:103B50002046AFF30080032011B043E6074B70B559
:103B60000D467B4400F05BF80446284600F018F947
:103B700010B14FF0FF3070BD204670BD3BD3FFFF4A
:103B800000487047F800002030B5B0F10A024FEA53
:103B9000900E71F100034EEA817EB0EB0E0061EBF6
:103BA00091014FEA101E4EEA017E10EB0E0041EB30
:103BB00011114FEA102E4EEA016E10EB0E0041EB90
:103BC00011214FEA104E4EEA014E10EB0E0041EB70
:103BD0001141401841F100014FEAD00040EA417024
:103BE0004FEAD10110EB80054FEA810444EA90745A
:103BF00044EB01046D1944EB0404521BA3414FF044
:103C0000000348BF0A3200D530BD401C41F100011D
:103C100030BD000001694A1C02610878704700B598
:103C20008FB0CDE901310021059105497944CDE9F5
:103C3000031011466846FFF7B7FC0FB000BD000047
:103C4000E5FFFFFF2DE9F0411F460446032601680A
:103C5000072A01F4006004DB08B116A505E016A5EB
:103C600003E008B115A500E015A521F010002060C3
:103C7000A069C01EA0610FB1401EA0612046AFF335
:103C800000804FB1D4E9012138469047206A401C9A
:103C90002062C01C206206E0206AFAE7D4E9012114
:103CA00015F8010B9047761EF8D22046AFF300803E
:103CB000BDE8F0814E414E006E616E00494E4600F7
:103CC000696E66002DE9F047814616468AB0334892
:103CD00078440DC88DE80D0030487844801C03AC52
:103CE0000DC884E80D0041F69B300844372190FB55
:103CF000F1F290FBF1F5A5F1800501FB12041B3CEC
:103D000002D56442012000E00020DFF890A0804648
:103D10000027FA44AAF1BE0A0DE0E00709D03246B6
:103D2000684607EB47010AEB810100F034FB8DE8A0
:103D3000070064107F1C002CEFD1184F7F44AC3F6C
:103D400018E0E80714D007EB04100DF1180A90E80A
:103D50000E008AE80E00C068F04201D19819089060
:103D6000324606A903A800F016FB03AB83E8070060
:103D70006D10641C002DE4D132466946B8F1000F85
:103D800003A802D000F0F3FA01E000F004FBC9E957
:103D90000001C9F808200AB0BDE8F087141200003D
:103DA000007B00F08000704700487047D80000207A
:103DB0007546FFF7F9FFAE4605006946534620F009
:103DC0000700854618B020B5FDF78CF8BDE8204007
:103DD0004FF000064FF000074FF000084FF0000BC7
:103DE00021F00701AC46ACE8C009ACE8C009ACE87A
:103DF000C009ACE8C0098D46704710B50446AFF362
:103E000000802046BDE81040FCF717BA4FF0013C97
:103E100050F8042B51F8043B9A4221D1A2EB0C0339
:103E2000934313EACC1317D150F8042B51F8043BF9
:103E30009A4215D1A2EB0C03934313EACC130BD196
:103E400050F8042B51F8043B9A4209D1A2EB0C0321
:103E5000934313EACC13DBD04FF00000704700BF50
:103E6000D01A01BAB1FA81F101F0180122FA01F079
:103E7000CB40C1F12001DBB2C0B2C01A2CFA01F371
:103E8000D11A914311EAC311E6D170475FEA400CA1
:103E900008BF91F0000F4FEA8C234FEAC12243EA9A
:103EA00051514FEA1C5018BF00F5F0404FEA300066
:103EB00018BF41F000415FEA6C5C00F02980BCF162
:103EC000FF3F08BF40F080407047130C06BF12044C
:103ED0004FF0100C4FF0000C130E04BF12020CF147
:103EE000080C130F04BF12010CF1040C930F04BF54
:103EF00092000CF1020CD30F04BF52000CF1010C24
:103F000011464FF00002A0F11F00A0EB0C0070471B
:103F100011F0004F08BF704731F000413FF4D5AFBA
:103F20000B0C06BF09044FF0100C4FF0000C0B0EE9
:103F300004BF09020CF1080C0B0F04BF09010CF1BE
:103F4000040C8B0F04BF89000CF1020CCB0F04BFD3
:103F500049000CF1010CCCF12003A0EB0C0022FA7B
:103F600003F302FA0CF241EA030100F10100704789
:103F700020F07F4C80EA030023F07F47ACEB07037F
:103F800003F57C5300F0004003F1FF032DE9804965
:103F90004FEA154B09B44FEA144325EA0B4E24EAC5
:103FA00003480FF2042606EB132749083E785FEA20
:103FB000320203FB0667C7F5000707FB06F64FEA68
:103FC00054374FEAD64606F1020607FB066CCCF1E1
:103FD000005C4FEA1C472CEA074C07FB06F40CFB7D
:103FE00006F504EB15464FEA961634BF00204FF055
:103FF00000404FEAD13706FB07FC4FEA1C4C0CFB94
:104000000BF7D21B03FB0CF761EB07010CFB0EF760
:10401000B0EB074072EB17420CFB08F734BFA2EB82
:104020000742B2EB074261EB17414FEA0C444FEAFB
:10403000910706FB07FC4FEA1C4C0CFB0BF7B0EB9F
:10404000C74072EB573203FB0CF734BFA2EBC742F9
:10405000B2EBC74261EB57310CFB0EF7B0EBC70078
:1040600072EB57720CFB08F734BFA2EBC702B2EB3E
:10407000C70261EB5771039F4FEA816141EA9211D8
:1040800004EBCC044FEAD1374FEA826206FB07FC0F
:1040900042EA90124FEA80604FEA1C4C0CFB0BF78F
:1040A000D21B03FB0CF761EB07010CFB0EF7B0EB27
:1040B000074072EB17420CFB08F734BFA2EB074234
:1040C000B2EB074261EB17414FEA8C554FEA91077B
:1040D00004EB9C2406FB07FC4FEA1C4C0CFB0BF783
:1040E000B0EBC74072EB573203FB0CF734BFA2EBC7
:1040F000C742B2EBC74261EB57310CFB0EF7B0EB96
:10410000C70072EB57720CFB08F734BFA2EBC70273
:10411000B2EBC70261EB577115EB4C254FEA816199
:1041200041EA92114FEA82624FEAD13742EA901295
:1041300006FB07FC44F100044FEA80604FEA1C4C88
:104140000CFB0BF7D21B03FB0CF761EB07010CFB1D
:104150000EF7B0EB074072EB17420CFB08F734BFC9
:10416000A2EB0742B2EB074261EB174115EB1C15BE
:104170004FEA813141EA92414FEA823242EA90426B
:104180004FEA80304FEA0C7644F1000448EA0343DA
:104190004EEA0B484FF0000EB2EB080C71EB030730
:1041A00024BF624639464EEB0E0E4FF0000B00184E
:1041B000524149414BEB0B0BB2EB080C71EB03077F
:1041C0007BF1000B24BF624639464EEB0E0E4FF0DA
:1041D000000B0018524149414BEB0B0BB2EB080CA2
:1041E00071EB03077BF1000B24BF624639464EEBAF
:1041F0000E0E51EA020718BF46F0010616EB0E76C6
:1042000055F1000254F1000103D5BDE88901BDE874
:104210000088BDE88901BDE80048B619524141EB6C
:104220000101A3F10103704780807F7E7D7C7B7A52
:104230007978777676757473727171706F6E6E6D52
:104240006C6C6B6A6A6968686766666564646363F8
:1042500062616160605F5F5E5E5D5D5C5C5B5B5A7E
:104260005A595958585757565655555554545353EB
:1042700052525251515050504F4F4F4E4E4D4D4D46
:104280004C4C4C4B4B4B4A4A4A4949494848484791
:1042900047474746464645454544444444434343CF
:1042A0004342424242414141002B26D4770021D073
:1042B0001CB54FEA370703B44FF010004FF0100160
:1042C0004FF000000FBCBDE810400BF1010BBBF13B
:1042D000010F08BF5FEA170722BF12F1010211F1B7
:1042E00001014FF0004143F1000300F0004043EAB8
:1042F00000007047F9D35708DAE746EA064613F19B
:10430000400F4FEA16461FDD13F1200FDFBF1643A3
:104310000A46002120335B42C8D0C3F1200746EA99
:10432000064602FA07F74FEA164646EA0706C3F1C1
:10433000200722FA03F201FA07F721FA03F14FF0FE
:10434000000342EA0702B1E746EA020646EA0646E9
:104350004FEA164646EA0106BCBF46EA0646360C58
:104360004FF000034FF000024FF000019EE72DE9EF
:10437000C048934630B491E8380007C831EA400C91
:1043800048BF34EA430C03D5FFF7F2FDFFF78CFF7B
:10439000F0BCBDE800882DE9C048934630B491E8F0
:1043A000380007C810F0804F08BF13F0804F03D1CA
:1043B00000F005F8FFF778FFF0BCBDE8008820F0BA
:1043C0007F4780EA030023F07F4C07EB0C03A3F543
:1043D0007C5300F00040A3F1FE0392F0000F00F0C8
:1043E000B38095F0000F00F077802DE901494FEA86
:1043F00011404FEA144621EA004800FB06FC24EA7B
:10440000064708FB06F607FB08F800FB07F718EB62
:1044100006484CEB164C4FEA124B18EB07484FEA94
:1044200015464CEB174022EA0B4E0BFB06FC25EA27
:1044300006470EFB06F607FB0EFE0BFB07F71EEB0F
:10444000064E4CEB164C4FF000061EEB074E4CEBA5
:10445000174B18EB0B0840F1000018EB0E0B58EB54
:10446000000840F100008F1A4FF000013CBFC94323
:10447000661B14BFB5EB040C00213CBFC943F61BFF
:104480004FEA17444EEA8E0E27EA04454FEA1C47CE
:1044900004FB07622CEA074C05FB07F70CFB05F64B
:1044A00004FB0CFC16EB074642EB174216EB0C46DE
:1044B00042EB1C421BEB060658EB0202414146EA66
:1044C0009E0601D5BDE80189B619524141EB0101B3
:1044D000A3F10103BDE801894FEA14454FEA1147F2
:1044E00024EA054621EA074C05FB07F406FB07F71B
:1044F0000CFB06F105FB0CFC11EB074144EB1744E8
:104500004FEA124711EB0C4144EB1C4422EA074CE2
:1045100005FB07F206FB07F70CFB06F605FB0CFC98
:1045200016EB074642EB174216EB0C4642EB1C45D6
:104530006A1854F1000148BF7047B619524141EB67
:104540000101A3F10103704795F0000F37D04FEA46
:1045500011424FEA144721EA024624EA074C02FBC3
:1045600007F106FB07F70CFB06F402FB0CFC14EB4F
:10457000074441EB17414FEA154714EB0C4441EB5C
:104580001C4125EA074C02FB07F506FB07F70CFB6D
:1045900006F602FB0CFC16EB074645EB174516EB3F
:1045A0000C4645EB1C42121951F1000148BF7047FF
:1045B000B619524141EB0101A3F1010370474FEAE3
:1045C00014454FEA114724EA054621EA074C05FB4A
:1045D00007F106FB07F70CFB06F24FF0000605FBA0
:1045E0000CFC12EB074241EB174112EB0C4251EB72
:1045F0001C4148BF7047921841EB0101A3F1010330
:10460000704703B401984100009850EAC12018BFD8
:1046100004204A0D18BF40F0010040F2FF72B2EBD7
:10462000515F08BF40F00200012808BF052002B01A
:104630007047000010B500290AD00878002807D07C
:1046400005487844FFF7E2FB002801D0002010BDA8
:104650000248784410BD0000DE080000D6080000C3
:1046600021F00042A2F16052B2F5801F01F0004338
:1046700028BFD2F17F6C0BD95FEA001C43EAC2026B
:1046800042EB507018BF704728BF20F00100704700
:10469000B2F5801FBCBF184670474FEA410C1CF5AD
:1046A000001F02D2084600F0D9BB70B500F021FA15
:1046B00000000089FFF7F6BF4FF00040A0F5800032
:1046C0007047000010B591EA030F48BF83F0004324
:1046D00000F16C82841A71EB030C05D2121943EBC2
:1046E0000C03001B61EB0C01DFF824E14FEA1154CD
:1046F000A4EB135C1EEA430F18BF9EEA445F73D01D
:1047000023EA0E03DCF1200E21EA045143F4801366
:1047100032D322FA0CFE10EB0E0023FA0CFE41EB12
:104720000E01CCF1200E03FA0EFE10EB0E0051F13B
:104730000001B1F5801FCCF1200E32D201EB045103
:1047400012FA0EF2BDE8104058BF7047401C38BF47
:104750005FEA420218BF7047002814BF20F0010032
:1047600041F100014FEA410313F5001F38BF7047C4
:10477000A1F1C04100F00BBA012A43EB0302ACF1F6
:10478000200CDCF11F0E32BF4FF0000E23FA0CF3A9
:1047900010EB030041EB0451B4EB115FD0D0A1EB5F
:1047A000045101F5801149085FEA300001EB045122
:1047B0000ED350F1000038BF12FA0EFE08D1BDE84A
:1047C0001040C9E7401C38BF5FEA4202CAD1C3E7C4
:1047D000BDE810404FEA410313F5001F38BF704792
:1047E000A1F1C04100F0D3B99EEA445F08D011EABC
:1047F0005E0FBDE8104004BF01F00041002070478B
:10480000BDE8104070B500F074F900BF64FBBE3E17
:104810000000E0FF2DE9C04130B4DFF8A0C23CEA5F
:10482000111418BF3CEA131400F0EC8081EA030570
:104830001CEA111444EAD57418BF1CEA131500F0E1
:10484000C780A4EB05044FF0004545EAC12145EAC5
:10485000C32341EA505143EA525304F17F74994211
:1048600004F500344FEAC0204FEAC22208BF90424C
:1048700000F09C804FEA13650FF24016765D4FEA18
:10488000134506FB05F7C7F1807706FB07F74FEAEC
:10489000D737A7FB03687642C8F58038A7FB06CE5A
:1048A00038BFA8F1010807FB08E64FF0000EA6FB91
:1048B000028CE6FB03CEDCF1000CCEF1004E38BFDB
:1048C000AEF1010EA6FB0C584FF000074FF00005AB
:1048D000E6FB0E87A1FB08C6A0FB07CE16EB0E0673
:1048E00045F10005E1FB076515F1E04E7EBFA4F53B
:1048F00080345FEA46066D4116F1800745F10005F8
:104900004FEA17274FEA066647EA0567A6F1DE4633
:10491000B6F1805F4FEA15251FD9384624F0010C07
:1049200005EBC471BCF1FE6F01EB0C1102D8F0BCB9
:10493000BDE8008124425CBF01F5801E9EEAC47F71
:1049400002D4F0BCBDE80081244238D4F0BCA1F10F
:10495000C041BDE8004100F01AB94FEAD22242EA54
:1049600043524FEAD323A7FB02864FEAD02040EA06
:10497000415007FB03661EEA0E0F4FEAD12105FBEB
:10498000026658BFA6EB0056B6EB00564FEA520E31
:104990004EEAC37E18EB0E0E56EB530EBDD518EB48
:1049A00002085E417F1C55F10005B6E74FF4801503
:1049B0004FF000074FF000064FF00008ADE7F0BCE5
:1049C0004FF0000001F1C04101F00041BDE800815D
:1049D00011EA0C1F0CEA131500D00CE013EA0C1FAF
:1049E00000F025804FF00000F0BC81EA030101F0E7
:1049F0000041BDE80081F0BCBDE8004181EA03014F
:104A000000F0C5B8F0BCBDE8004170B500F071F829
:104A1000097EFC3E00F007B881EA03014FF0000078
:104A200001F00041704781EA030100F0B0B8F0BC2A
:104A3000BDE800414FF0000021497047FFFDFBF940
:104A4000F7F5F4F2F0EEEDEBE9E8E6E4E3E1E0DEC1
:104A5000DDDBDAD8D7D5D4D3D1D0CFCDCCCBCAC833
:104A6000C7C6C5C4C2C1C0BFBEBDBCBBBAB9B8B75A
:104A7000B6B5B4B3B2B1B0AFAEADACABAAA9A8A84D
:104A8000A7A6A5A4A3A3A2A1A09F9F9E9D9C9C9B1B
:104A90009A999998979796959594939392919190C6
:104AA0008F8F8E8E8D8C8C8B8B8A89898888878757
:104AB0008685858484838382828181800000FF07CC
:104AC0000000F87F10F0004248BF4042B0FA80F387
:104AD00010FA03F10AD0C3F11D0303F580634FEA16
:104AE000415002EB035202EBD12170474FF000001E
:104AF00070470EF1020E2EF0030E5EF8046B364284
:104B000005D4012A43EB030515F5001F12D801282F
:104B100041EB010C1CF5001F0CD80ED14FEAD17CE3
:104B200015F5001F0CEB4C0C0CF1020C08BF4CEB04
:104B3000D37C04E04FF0080C01E04FEAD37C0CEB8F
:104B40004C0526FA05F606F00706B6F1040C06D267
:104B50000EEB860CBDE870404CF0010C6047DFE8BE
:104B60000CF0090B02024FF000414FF00000A1F5DC
:104B7000002170BD19461046012851EB010418BFF1
:104B8000D4F5001484BF002001F0004170BD080876
:104B9000A0F500114FEA31017047000010B591EA0D
:104BA000030F48BF83F000433FF594AD841A71EBC7
:104BB000030C07D212198CF0004C43EB0C03001BC2
:104BC00061EB0C01DFF8A4E14FEA1154A4EB135C94
:104BD0001EEA430F18BF9EEA445F00F0B08023EA4C
:104BE0006E03524221EA0451C3EB6E0338BF5B1ED1
:104BF000DCF1200E25D322FA0CFE10EB0E0043FA56
:104C00000CFE41EB0E01CCF1200E03FA0EFE10EB70
:104C10000E0051F10001CCF1200E29D412FA0EF24F
:104C200001EB0451BDE8104058BF7047401C1CBF49
:104C3000B2F1004F704700280CBF491C20F0010062
:104C4000704712EB020E43EB030218BF4FF0010E48
:104C50004EEA4202ACF1200CDCF11E0E54D943FAAC
:104C60000CFE10EB0E0051F1FF31CCF11E0ED5D52C
:104C70000EF1010E12FA0EFE404141EB010101EB73
:104C8000445C5FEA5C5C10D910EBDE7001EB045110
:104C900038BFBEF1004FBDE8104018BF7047002874
:104CA0000CBF491C20F00100704730D24FEAD42CD1
:104CB00011F5001124F400641BD0B1FA81F20B3A13
:104CC000A41AA41ED2F12003914030FA03F3194331
:104CD000904001EBCC71002C01EB0451BDE8104079
:104CE000A8BF704701F1C0414FF0000001F0004142
:104CF0007047B0FA80F310FA03F100D110BDE41A46
:104D0000173C4805C90AE4E701EB045110BD4910FE
:104D100001EB0451BDE810404FEA300002E04FF0D3
:104D2000000170474A0008BF0042F8D0B2F5001FEA
:104D300028BF704701F000414FF0000070479EEA25
:104D4000445F07D011EA5E0FBDE8104004BF0021A8
:104D500000207047BDE8104070B5FFF7CAFE00BFE5
:104D600040DFF63E83F00041104670470000E0FF50
:104D700043004FEAD30C4FEA3C0C43401FBF4007AF
:104D80000CF1605113F0FE4F70471CF0006F03D11F
:104D900000200CF0004170470CF0004343EA5070D3
:104DA00010B540EACC0000F00EF800BF0000009201
:104DB0004FEA0001FFF7EBBE4FF000414FF000005B
:104DC000A1F5002170470EF1020E2EF0030E5EF8E1
:104DD000044B244204D44FEA4102B2F17F4F11D870
:104DE0004FEA4003B3F17F4F0CD80ED14FEAD07C8D
:104DF000B2F17F4F0CEB4C0C0CF1020C08BF4CEBEA
:104E0000D17C04E04FF0080C01E04FEAD17C0CEBC0
:104E10004C0324FA03F404F00704B4F1040C06D2A2
:104E20000EEB840CBDE810404CF0010C6047DFE84D
:104E30000CF0070802024FF00040A0F5800010BD02
:104E40000846420018BFD2F1807288BF00F00040CF
:104E500010BD4FF04070E1EE100A7047FF2141EAAB
:104E6000D050C0057047FEF743BD0000024000006F
:104E7000000000A00000000005400000000000C885
:104E8000000000000C4000000000409C00000000FA
:104E9000194000000020BCBE0000000034400000AB
:104EA000BFC91B8E00000004B5400000504BCFD09E
:104EB0006607E2CF010000006C4100003E8251AA6B
:104EC000DFEEA73401000000D9420000DCB5A0E20B
:104ED0003A301F97FFFFFFFFB4450000FD25A0C833
:104EE000E9A3C14FFFFFFFFFFF3F0000000000806C
:104EF00000000000FF3F00000000008000000000F4
:104F00003C4F0008000000205C000000C4010008C5
:104F1000984F00085C000020DC060000E00100085B
:104F20001C00000043000000F8FFFFFF0C00000021
:104F30000E0000000F0000002E0000000000000026
:104F40000100000000000000000000000000000060
:104F50000000000000000000000000000000000051
:104F60000000000000000000000000000000000041
:104F700000000000010203040102030406070809FF
:104F800000000000007A030A00000000000000009A
:084F90000102030406070809F1
:040000050800018965
:00000001FF
