:020000040800F2
:10000000580400209D01000899110008951100086E
:10001000971100087D020008891200080000000006
:100020000000000000000000000000009D1100081A
:100030007F020008000000009B1100089F110008CB
:10004000B7010008B7010008B7010008B7010008B0
:10005000B7010008B7010008B7010008B7010008A0
:10006000B7010008B7010008B7010008B701000890
:10007000B7010008B7010008B7010008B701000880
:10008000B7010008B7010008B7010008B701000870
:10009000B7010008B7010008B7010008B701000860
:1000A000B7010008B7010008B7010008B701000850
:1000B000B7010008B7010008B7010008B701000840
:1000C000B7010008B7010008B7010008B701000830
:1000D000B7010008B7010008B7010008B701000820
:1000E000B7010008B7010008B7010008B701000810
:1000F000B7010008B7010008B7010008B701000800
:10010000B7010008B7010008B7010008B7010008EF
:10011000B7010008B7010008B7010008B7010008DF
:10012000B7010008B7010008B7010008B7010008CF
:10013000B7010008B7010008B7010008B7010008BF
:10014000B7010008B7010008B7010008B7010008AF
:10015000B7010008B7010008B7010008B70100089F
:10016000B7010008B7010008B7010008B70100088F
:10017000B7010008B7010008B7010008000000003F
:10018000B7010008B7010008DFF80CD000F018F83C
:1001900000480047C912000858040020064880475C
:1001A00006480047FEE7FEE7FEE7FEE7FEE7FEE75C
:1001B000FEE7FEE7FEE7FEE73512000889010008CA
:1001C000064C074D06E0E06840F0010394E80700A4
:1001D00098471034AC42F6D3FFF7DAFF60140008FA
:1001E0008014000870B5154986B0040005D0012CB4
:1001F00003D0022C01D0032C07D1086840F008007E
:100200000860086800F0080005900D4E0D4D694625
:1002100036F8140000900120019002900220039013
:1002200055F8240000F0CEFB36F8141055F82400E1
:10023000002200F0A3FC06B070BD00003038024080
:1002400058140008280000200449054A31F810100D
:1002500052F82000012200F091BC00005814000860
:10026000280000200349044A31F8101052F82000F9
:1002700000F080BC5814000828000020FEE77047FA
:100280000C490A880C49098860B1012810D14EF642
:10029000EE6009B11AB107E0824209D006E081425E
:1002A00004D005E022B109B1AB20704701207047AE
:1002B000002070470080000800C0000810B586B01C
:1002C00000200590009002200121124CCDE902018E
:1002D0000490204600F094F928B905A9684600F07A
:1002E000D3FA002814D1002213462146012000F041
:1002F00017FB00280CD103200290074800F080F97A
:1003000028B905A9684600F0BFFA002800D10020EE
:1003100006B010BD0080000800C000082DE9F04FB5
:1003200087B05D4F002405943988661EDFF86CA104
:10033000BAF8000002254FF00108CDE90258584AEA
:10034000584B00944FF003094FF6FF7C04950029A9
:100350006BD0A1F6EE61B1F5604122D001F6EF61FC
:10036000B1F5005F1AD140B1A0F56E41EE3915D15B
:10037000384600F045F938B10CE038465CE005A994
:10038000684600F081FA4AE005A9684600F07CFA68
:10039000002847D10022134651463DE0FFF78EFF6B
:1003A0003DE040B16045F9D15046CDF8089000F0ED
:1003B00027F940B32DE09346FA883BF814008242B7
:1003C00000D126B2B4420CD0364900F0C9F8012859
:1003D00007D034493BF81400098800F0E5F80028FC
:1003E00020D1641CA4B2032CE6D300221346394664
:1003F000012000F095FA002814D1CDF80890CDE93D
:100400000385504618E005A9684600F03DFA00282B
:1004100008D1002213463946012000F081FA002855
:1004200000D1002007B0BDE8F08F0028B6D06045AD
:1004300007D15046CDF8089000F0E2F800289ED091
:10044000EFE791464FEA030BBAF8061039F814208B
:10045000914200D126B2B4420DD01249104600F0AC
:100460007FF8012807D039F81400BBF8001000F01D
:100470009BF80028D6D1641CA4B2032CE4D300223C
:1004800013465146012000F04BFA0028CAD1CDE9AD
:100490000258049571E700000080000800C00008C1
:1004A00004000020100000202DE9F047002486B051
:1004B00006468846264DA14620460594FFF7E0FEF5
:1004C000012804D028B1AB2006B0BDE8F08703278F
:1004D00001E0204D02274EF6EE620023294601205E
:1004E00000F01EFA0028EFD14146304600F05CF8DB
:1004F0000028E9D1DFF86080DFF860A038F8142028
:10050000B2420DD01549104600F02AF8012807D054
:1005100038F81400BAF8001000F046F80028D3D1DB
:10052000641CA4B2032CE9D30120CDE9027002209F
:100530000490CDF8009005A9684600F0A5F90028C0
:10054000C2D1002213462946012000F0E9F9BBE799
:100550000080000800C000080400002010000020F7
:100560002DE9F04106460D4601240D4F0020FFF70E
:1005700087FEAB2812D00B4A07EB803102EB8032AA
:10058000891C08E01088B04204D132F8020C28809F
:10059000002402E0121F8A42F4D82046BDE8F08110
:1005A00000800008FEBF000870B506460D46124CDC
:1005B0000120FFF765FEAB280CD0104904EB803416
:1005C00001EB803003E02168491C04D0241D8442E3
:1005D000F9D3802070BD2A4600232146012000F077
:1005E0009FF90028F6D1A11C3246BDE870400023D7
:1005F000012000F095B9000000800008FFBF00084E
:1006000010B501214FF6FF74054B05E00288A242A8
:1006100001D0002102E0001D9842F7D9084610BD24
:10062000FFBF000870B50C460546FFF7BDFF8028E8
:1006300005D121462846BDE87040FFF735BF70BDA3
:100640000020FFF70FFE282000F010F9F8E7000067
:10065000002229B101291FD0022920D04FF4407275
:1006600010490B6823F440730B600B6813430B6055
:100670000A6822F0F8020A600A68F82393FAA3F3E2
:10068000B3FA83F3984040F0020002430A6008681E
:1006900040F48030086070474FF48072E0E74FF418
:1006A0000072DDE7103C02401348016889050FD550
:1006B000016821F400710160016841F4006101608A
:1006C000016821F400610160016841F4007101607A
:1006D000016849050FD5016821F480610160016856
:1006E00041F480510160016821F48051016001688A
:1006F00041F4806101607047003C024008490A688B
:1007000022F440720A600A6842F004020A600A6831
:100710004FF4803343EA002002430A607047000030
:10072000103C0240064A136823F4407313601368B8
:100730001360136843F001031360017070470000F9
:10074000103C0240084910B50C6824F440740C6059
:100750000C6844F440740C600C6844F001040C60B4
:100760000260436010BD0000103C0240074A13685D
:1007700023F440731360136843F4807313601368A9
:1007800043F001031360018070470000103C0240F9
:10079000074A136823F440731360136843F400732B
:1007A0001360136843F00103136001607047000099
:1007B000103C024017490868C206174805D5C269AF
:1007C00042F01002C26110220A600A68920605D542
:1007D000C26942F00802C26120220A600A68520619
:1007E00005D5C26942F00402C26140220A600A686B
:1007F000120605D5C26942F00202C26180220A6077
:100800000A68920705D5C26942F02002C26102203F
:10081000086070470C3C02403800002070B5114958
:1008200004460020C86100F0B5F906460E4D09E007
:10083000601C07D024B100F0ADF9801BA04201D9A3
:10084000032070BD2868C003F2D42868C00701D017
:1008500001202860286810F0F200F2D0FFF7AAFF0C
:10086000012070BD380000200C3C024031B500F082
:1008700091F9009C0546601C00D0641C00F08AF9C8
:10088000401BA042FAD338BD2DE9F0470446224868
:100890000F46017E01290AD00121804601764CF2E3
:1008A00050394846FFF7BAFF020003D02FE002207C
:1008B000BDE8F0874FF0FF3038602068174D012801
:1008C00001D0A6681CE0207C6168FFF717FF48464E
:1008D000FFF7A4FF0246286820F00400286014E017
:1008E000217C3046FFF7B4FE4846FFF797FF020031
:1008F000286820F0FA00286001D03E6005E0761CF0
:10090000D4E902100844B042EAD8FFF7CDFE002136
:1009100088F818101046CBE738000020103C024041
:100920002DE9F0471B4E05461446307E1F4689468A
:10093000012808D0012030764CF250384046FFF7AD
:100940006DFF18B114E00220BDE8F0879DB1012DC4
:1009500016D0022D19D022463B464846FFF7F2FE3C
:100960004046FFF75BFF0C490A6822F001020A606B
:1009700000213176E8E7E1B24846FFF7D3FEEFE722
:10098000A1B24846FFF7F2FEEAE721464846FFF7E4
:10099000FFFEE5E738000020103C024006480068F2
:1009A000002807DA044805490C3801600449016051
:1009B0000020704701207047103C0240230167452A
:1009C000AB89EFCD2DE9F84FDFF87CB100224FF075
:1009D00001084FF0030A4FF00F090BF1040E00BF9E
:1009E0000B6808FA02F42340A3426ED14D68022D31
:1009F00001D0122D0ED1D50800EB850CDCF820506B
:100A00005607F70E09FA07F6B5430E69BE402E43A6
:100A1000CCF82060066855000F790AFA05FC07F04B
:100A2000030726EA0C06AF40374307604E68012EE5
:100A300005D0022E03D0112E01D0122E0ED18668C1
:100A4000CF6826EA0C06AF40374387604668A64366
:100A50000C79C4F30014944034434460C6688C6835
:100A600026EA0C06AC403443C4604C68E40065D50B
:100A7000364C256845F480452560246822F003053E
:100A800004F480440094324C2E19D6F80848950797
:100A90002F0F09FA07F5AC432E4DA84201D10025CE
:100AA00024E02D4DA84201D101251FE02B4DA84285
:100AB00001D102251AE02A4DA84201D1032515E0F3
:100AC000284DA84202D1042510E037E0264DA84267
:100AD00001D105250AE0254DA84201D1062505E0F2
:100AE000234DA84201D1072500E00825BD4025433C
:100AF000C6F80858DBF800405D464E689C43F60394
:100B000000D51C432C60DEF8004075464E689C43BF
:100B1000B60300D51C432C600B4D08352C684E687D
:100B20009C43F60200D51C432C60074D0C352C6805
:100B30004E689C43B60200D51C432C60521C102A00
:100B4000FFF44EAFBDE8F88F003C0140443802404E
:100B50000030014000000240000402400008024052
:100B6000000C024000100240001402400018024035
:100B7000001C024042694A40426170470AB18161EB
:100B800070470904FBE7000001480068000C70474B
:100B9000002004E0014800687047000018000020B1
:100BA00002480168491C01607047000018000020DD
:100BB000094810B5016841F400710160016841F411
:100BC00080610160032000F03FF80F2000F006F87C
:100BD00000F018F8002010BD003C024010B504469B
:100BE00007484FF47A710068B0FBF1F000F0BEFAEC
:100BF00000222146501E00F007F8002010BD000022
:100C00001400002070470000F0B40E4B1B680C4627
:100C1000C3F30223C3F10705042D00D90425191DD0
:100C2000072901D2002300E0DB1E012606FA05F1A8
:100C3000491E214099409E40761E16403143F0BC2B
:100C400000F023BB0CED00E0064900F00702086845
:100C50004FF6FF03184040EA0220034A10430860A1
:100C6000704700000CED00E00000FA052DE9F047A8
:100C7000DFF8649105460F46D9F8000000F00F0137
:100C8000F8B28046B94208D2014689F80010D9F876
:100C9000000000F00F00B84274D128784F4C800754
:100CA00005D52068A96820F0F00008432060287866
:100CB000C00759D049496868083901281AD0022864
:100CC0001BD0032819D00968890700295ADA21683E
:100CD00021F0030101432160FFF75CFF69680646CC
:100CE00041F28830012911D002291DD00329824602
:100CF00027D035E009688903E7E709688901E4E757
:100D0000FFF748FF811B514501D926E08246206844
:100D1000C0F381000128F3D126E000BFFFF73AFFBE
:100D2000811B514501D918E082462068C0F381003B
:100D30000228F3D118E000BFFFF72CFF811B5145BB
:100D40000BD82068C0F381000328F5D10CE000BF68
:100D5000FFF720FF811B514502D90320BDE8F08732
:100D6000206810F00C0FF3D1D9F80010484601F0BC
:100D70000F01B94208D980F80080006800F00F0028
:100D8000B84201D00120E9E72878400705D520685E
:100D9000E96820F4E050084320602878000706D571
:100DA0002068296920F4604040EAC100206000F01A
:100DB0001BF82168F02292FAA2F201F0F001B2FAD7
:100DC00082F2D140064A515CC840064908600F20B3
:100DD000FFF704FF0020C1E7003C02400838024052
:100DE000441400081400002030B51948006810F0C1
:100DF0000C01184812D0441004290ED008290DD136
:100E00001349091F0A6802F03F030A68550247F6B2
:100E1000C07204D5B4FBF3F003E0204630BDB0FB54
:100E2000F3F00B680968134092FAA2F2B2FA82F268
:100E3000D34058434FF4403292FAA2F201F44031C9
:100E4000B2FA82F2D140491C4900B0FBF1F030BD4A
:100E5000083802400024F4002DE9F84F0546DFF879
:100E6000FC920078A9F1040BC007ABF1040449D04F
:100E7000D9F800104846C1F38101012908D0006863
:100E8000C0F3810002280AD1DBF80000400206D539
:100E90002068800336D5686800286ED032E0686824
:100EA000B0F5803F10D0B0F5A02F206810D020F40E
:100EB00080302060206820F4802020606868A0B125
:100EC000FFF768FE06460CE0206840F48030F4E747
:100ED00040F480202060F7E7FFF75CFE801B642869
:100EE00071D820688003F7D50CE0FFF753FE064663
:100EF00005E000BFFFF74EFE801B6428F0D8206895
:100F00008003F7D42878964F80074FF0010A4FF0FE
:100F1000000841D5D9F80010484611F00C0F08D050
:100F20000068C0F3810002280AD1DBF8000040020B
:100F300006D42068800713D5E86801281DD10FE08A
:100F4000E868D8B1C7F800A0FFF724FE064604E021
:100F5000FFF720FE801B0228C2D820688007F7D543
:100F60002068F82292FAA2F22969B2FA82F220F0FD
:100F7000F8009140084320600EE0ECE0C7F80080E4
:100F8000FFF708FE064604E0FFF704FE801B022878
:100F900019D820688007F7D42878000724D571482D
:100FA000696989B1C0F800A0FFF7F4FD064604E0C6
:100FB000FFF7F0FD801B022805D868486C300068F8
:100FC0008007F5D510E07AE0C0F80080FFF7E2FD79
:100FD000064604E0FFF7DEFD801B02286FD85F485D
:100FE0006C3000688007F5D42878400753D55B48FB
:100FF0003830016841F080510160006800F0805095
:1010000000905948016841F480710160FFF7C2FD0A
:10101000064604E0FFF7BEFD801B02284FD8524869
:101020000068C005F6D54D4EA868683601280FD077
:101030000528306810D020F001003060306820F0C2
:1010400004003060A868B8B1FFF7A4FD00900FE07D
:10105000306840F00100F4E740F004003060F7E74A
:10106000FFF798FD0099411A41F2883081426AD811
:1010700030688007F4D50EE0FFF78CFD009007E0A4
:10108000FFF788FD0099411A41F2883081425AD811
:1010900030688007F4D4A869E8B3D9F80010C1F328
:1010A0008101022957D00228C7F8608003D0FFF7DA
:1010B00071FD05464AE0FFF76DFD064605E042E09A
:1010C000FFF768FD801B02283DD820688001F7D417
:1010D000D5E90701084347F6C07292FAA2F2696A9D
:1010E000B2FA82F29140AA6A4FF0FF3303EB520248
:1010F0004FF4403393FAA3F3B3FA83F39A401143C6
:1011000008434FF0706292FAA2F2E96AB2FA82F2F0
:101110009140084300E01CE0CBF80000C7F860A055
:10112000FFF738FD054604E0FFF734FD401B0228B9
:1011300009D820688001F7D50BE000BFFFF72AFD32
:10114000401B022802D90320BDE8F88F20688001E7
:10115000F4D40020F8E70120F6E700000838024048
:1011600000004742800E47420070004010B5401E0C
:10117000B0F1807F01D3012010BD4FF0E024606109
:101180000F21601700F081F80020A0610720206186
:10119000002010BDFEE7FEE7704770477047FFF77D
:1011A000FFBC000030B5204893B00025016841F035
:1011B00080510160006800F0805011901B48016868
:1011C00041F4804101600068022400F480401190E5
:1011D00001200090000401908001CDE90640082024
:1011E00008904FF4A870CDE9090407200B906846D9
:1011F000FFF732FE0CA90F2081E831004FF4A05018
:101200000F90E002109005210CA8FFF72FFDFFF7CB
:10121000BBFC41F20101884204D10548016841F458
:101220008071016013B030BD403802400070004052
:10123000003C02401048016841F4700101600F4811
:10124000016841F0010101600C4A0021083211607F
:1012500002680B4B1A400260031D0A4A1A600268BA
:1012600022F48022026005480C30016002495806D1
:10127000803908607047000088ED00E000380240C7
:10128000FFFFF6FE10300024FEE70907090E0028D4
:1012900004DB00F1E02080F80014704700F00F003C
:1012A00000F1E02080F8141D704702E008C8121F0A
:1012B00008C1002AFAD170477047002001E001C13F
:1012C000121F002AFBD17047FFF772FCFFF76AFF7D
:1012D000FFF764FB0020FEF785FFFFF71FF80028EB
:1012E0007ED1574C0127251D6780AE1D2888618857
:1012F000FFF798F9002873D1514928880A31FFF780
:101300002FF900286CD131886088814268D1C043B0
:1013100081B26888FFF786F9002861D16888B11C1E
:10132000FFF71EF900285BD160887288C14389B23B
:1013300091427ED14FF6FF7101EA4001A888FFF784
:1013400071F9002875D1A888311DFFF709F9002827
:101350006FD1B1886088B1EB400F6AD1401C80B278
:101360006080B0F5805FC1D967804FF4005868880D
:101370006188FFF757F900285BD16888B11CFFF737
:10138000EFF868BB71886088814252D1401C80B2FE
:1013900060804045EBD928882949FFF7E1F8F8B982
:1013A00030882188884244D168882549FFF7D8F8D9
:1013B000B0B97088218888423BD1A8882049FFF7BE
:1013C000CFF868B9B0882188884232D167804FF45D
:1013D0004057A8886188FFF725F908B9A88800E078
:1013E00027E0311DFFF7BCF818BBB1886088814247
:1013F0001FD1401C80B26080B842EAD928881049C9
:10140000FFF7AEF8A8B930882188884211D16888E2
:101410000B49FFF7A5F860B970882188884208D188
:10142000A8880749FFF79CF818B9B0882188884236
:1014300001D0FFF705F90020FEF706FFFBE70000EB
:101440000000002000000000000000000102030472
:101450000607080906000100001000200040008077
:10146000801400080000002038000000AA120008C4
:10147000B81400083800002020040000BA12000848
:1014800000000000555566667777000000000000F8
:10149000000000000024F4000000000000000240F2
:1014A0000010000000100000000C0240000C024080
:0814B000000C0240000C024098
:040000050800018965
:00000001FF
