:020000040800F2
:100000002042002059020008FF0F0008FB0F0008E3
:10001000FD0F0008F9020008A51500080000000007
:100020000000000000000000000000009D0100082A
:10003000FB02000800000000F1010008D1100008D8
:1000400073020008730200087302000873020008BC
:1000500073020008730200087302000873020008AC
:10006000730200087302000873020008730200089C
:10007000730200087302000873020008730200088C
:10008000730200087302000873020008730200087C
:10009000730200087302000873020008730200086C
:1000A00073020008C91100087302000873020008F7
:1000B000730200087302000873020008730200084C
:1000C000730200087302000873020008730200083C
:1000D000730200087302000873020008730200082C
:1000E000730200087302000873020008730200081C
:1000F000730200087302000873020008730200080C
:1001000073020008730200087302000873020008FB
:1001100073020008730200087302000873020008EB
:1001200073020008730200087302000873020008DB
:1001300073020008730200087302000873020008CB
:1001400073020008730200087302000873020008BB
:1001500073020008730200087302000873020008AB
:10016000730200087302000873020008730200089B
:100170007302000873020008730200080000000008
:100180007302000873020008DFF80CD000F0A2F838
:1001900000480047C5150008204200202B4B196875
:1001A0000868B0E8F04F80F30988BFF36F8F4FF015
:1001B000000080F3118870470000000006480068C6
:1001C000006880F3088862B661B6BFF34F8FBFF353
:1001D0006F8F00DF00BF00BF08ED00E0DFF80C000C
:1001E000016841F470010160704700BF88ED00E0D4
:1001F000EFF30980BFF36F8F144B1A681EF0100FD6
:1002000008BF20ED108A20E9F04F106008B44FF0CD
:10021000500080F31188BFF34F8FBFF36F8F01F051
:10022000F3FD4FF0000080F3118808BC19680868DE
:10023000B0E8F04F1EF0100F08BFB0EC108A80F34A
:100240000988BFF36F8F704700BF00BF38000020E0
:10025000EFF30580704700000648804706480047D6
:10026000FEE7FEE7FEE7FEE7FEE7FEE7FEE7FEE766
:10027000FEE7FEE7751100088901000840EA010366
:100280009B0703D009E008C9121F08C0042AFAD24C
:1002900003E011F8013B00F8013B521EF9D2704710
:1002A000D2B201E000F8012B491EFBD270470022B8
:1002B000F6E710B513460A4604461946FFF7F0FF65
:1002C000204610BD421C10F8011B0029FBD1801AEA
:1002D00070470000064C074D06E0E06840F001035F
:1002E00094E8070098471034AC42F6D3FFF750FF6C
:1002F000C0280008E0280008FEE770472DE9F84F05
:10030000DFF87CB100224FF001084FF0030A4FF0F4
:100310000F090BF1040E00BF0B6808FA02F423402A
:10032000A3426ED14D68022D01D0122D0ED1D508F9
:1003300000EB850CDCF820505607F70E09FA07F69B
:10034000B5430E69BE402E43CCF8206006685500C8
:100350000F790AFA05FC07F0030726EA0C06AF40FE
:10036000374307604E68012E05D0022E03D0112EB0
:1003700001D0122E0ED18668CF6826EA0C06AF4057
:10038000374387604668A6430C79C4F30014944051
:1003900034434460C6688C6826EA0C06AC4034439B
:1003A000C4604C68E40065D5364C256845F480454A
:1003B0002560246822F0030504F480440094324C44
:1003C0002E19D6F8084895072F0F09FA07F5AC4300
:1003D0002E4DA84201D1002524E02D4DA84201D187
:1003E00001251FE02B4DA84201D102251AE02A4D1C
:1003F000A84201D1032515E0284DA84202D10425C9
:1004000010E037E0264DA84201D105250AE0254D30
:10041000A84201D1062505E0234DA84201D10725B8
:1004200000E00825BD402543C6F80858DBF8004029
:100430005D464E689C43F60300D51C432C60DEF8F5
:10044000004075464E689C43B60300D51C432C60A3
:100450000B4D08352C684E689C43F60200D51C43B2
:100460002C60074D0C352C684E689C43B60200D5B5
:100470001C432C60521C102AFFF44EAFBDE8F88FCD
:10048000003C01404438024000300140000002407E
:100490000004024000080240000C0240001002402C
:1004A0000014024000180240001C0240014800688D
:1004B000704700001C00002002480168491C0160D0
:1004C000704700001C0000200B4810B5016841F483
:1004D00000710160016841F480610160016841F4CC
:1004E00080710160032000F09BF8002000F006F806
:1004F00000F03EF8002010BD003C024010B501465F
:1005000088B00022192000F06BF8192000F05CF888
:1005100013480024016841F001010160006805A949
:1005200000F001000690684600F04AF900F086F9F4
:100530000C494000B0FBF1F10C480B4A491E026027
:1005400040F2E732C0E90324C0E9011400F05CFB8B
:1005500010B1012008B010BD044800F071FBF9E7AC
:100560004438024040420F00000001407C0000205F
:1005700010B5032000F054F8002211466FF00B0074
:1005800000F02EF8002211466FF00A0000F028F863
:10059000002211466FF0090000F022F800221146F7
:1005A000501F00F01DF800221146101F00F018F82F
:1005B00000220F21901E00F013F800220F21BDE849
:1005C0001040501E00F00CB800F01F0201219140B5
:1005D0004009800000F1E020C0F8001170470000E1
:1005E000F0B40E4B1B680C46C3F30223C3F107059E
:1005F000042D00D90425191D072901D2002300E08C
:10060000DB1E012606FA05F1491E214099409E4055
:10061000761E16403143F0BC00F0F2BC0CED00E059
:10062000064900F0070208684FF6FF03184040EA49
:100630000220034A10430860704700000CED00E000
:100640000000FA052DE9F047DFF8649105460F46F2
:10065000D9F8000000F00F01F8B28046B94208D284
:10066000014689F80010D9F8000000F00F00B842E8
:1006700074D128784F4C800705D52068A96820F0F0
:10068000F000084320602878C00759D049496868BD
:10069000083901281AD002281BD0032819D009686C
:1006A000890700295ADA216821F0030101432160FA
:1006B000FFF7FCFE6968064641F28830012911D037
:1006C00002291DD00329824627D035E00968890315
:1006D000E7E709688901E4E7FFF7E8FE811B514578
:1006E00001D926E082462068C0F381000128F3D1B9
:1006F00026E000BFFFF7DAFE811B514501D918E063
:1007000082462068C0F381000228F3D118E000BFC0
:10071000FFF7CCFE811B51450BD82068C0F3810048
:100720000328F5D10CE000BFFFF7C0FE811B514547
:1007300002D90320BDE8F087206810F00C0FF3D138
:10074000D9F80010484601F00F01B94208D980F8E5
:100750000080006800F00F00B84201D00120E9E7F6
:100760002878400705D52068E96820F4E050084360
:1007700020602878000706D52068296920F46040A9
:1007800040EAC100206000F071F82168F02292FA7E
:10079000A2F201F0F001B2FA82F2D140064A515CB5
:1007A000C840064908600020FFF7A8FE0020C1E706
:1007B000003C0240083802408C2800081800002045
:1007C0000F2202600C4A136803F0030343601368AE
:1007D00003F0F0038360136803F4E053C36012680E
:1007E0004FF4E05303EAD20202610448006800F0CB
:1007F0000F0008607047000008380240003C0240CB
:1008000001480068704700001800002008480949A6
:10081000006809684FF4E05292FAA2F201F4E05144
:10082000B2FA82F2D140044A515CC84070470000DD
:1008300018000020083802408C28000808480949A0
:10084000006809684FF4604292FAA2F201F4604134
:10085000B2FA82F2D140044A515CC84070470000AD
:1008600018000020083802408C28000830B51948CC
:10087000006810F00C01184812D0184C04290ED052
:1008800008290DD11349091F0A6802F03F030A68BD
:10089000550247F6C07204D5B4FBF3F003E02046DE
:1008A00030BDB0FBF3F00B680968134092FAA2F276
:1008B000B2FA82F2D34058434FF4403292FAA2F295
:1008C00001F44031B2FA82F2D140491C4900B0FB38
:1008D000F1F030BD083802400024F40040787D017A
:1008E0002DE9F84F0446DFF8CC820078A8F1040B1C
:1008F000C007ABF1040537D0D8F800104046C1F36B
:100900008101012908D00068C0F3810002280AD1C2
:10091000DBF80000400206D52868800324D5606813
:10092000002878D020E0A3492079891F08706068EA
:1009300068B1FFF7BBFD064605E000BFFFF7B6FD57
:10094000801B642868D828688003F7D50CE0FFF77F
:10095000ADFD064605E000BFFFF7A8FD801B64283B
:10096000F0D828688003F7D42078934E80074FF0A2
:10097000010A4FF0000742D5D8F80010404611F0A8
:100980000C0F08D00068C0F3810002280AD1DBF800
:100990000000400206D42868800714D5E0680128CA
:1009A00039D110E0E068D8B1C6F800A0FFF77EFDAD
:1009B000814605E0FFF77AFDA0EB09000228C1D8C7
:1009C00028688007F6D52868F82292FAA2F22169F1
:1009D000B2FA82F220F0F8009140084328600EE05D
:1009E0003760FFF763FD814606E000BFFFF75EFD5D
:1009F000A0EB090002280FD828688007F6D42078D9
:100A0000000728D56D486169A1B1C0F800A0FFF7C3
:100A10004DFD814608E0CAE079E000BFFFF746FDE2
:100A2000A0EB0900022872D862486C300068800789
:100A3000F4D510E00760FFF739FD814606E000BFFE
:100A4000FFF734FDA0EB0900022860D859486C304C
:100A500000688007F4D42078400749D555483830DD
:100A6000016841F080510160006800F08050009002
:100A70005348016841F480710160FFF717FD81461A
:100A800006E000BFFFF712FDA0EB090002283ED8E8
:100A90004B480068C005F5D5DFF81891207A09F1B8
:100AA000680989F80000A06888B1FFF7FFFC009092
:100AB00008E000BFFFF7FAFC0099411A41F28830C4
:100AC00081426CD8D9F800008007F3D510E0FFF719
:100AD000EDFC009008E000BFFFF7E8FC0099411A28
:100AE00041F2883081425AD8D9F800008007F3D407
:100AF000A069E0B3D8F80010C1F38101022956D0F3
:100B00000228376604D0FFF7D1FC04464AE046E0ED
:100B1000FFF7CCFC074604E0FFF7C8FCC01B022827
:100B20003DD828688001F7D4D4E90701084347F687
:100B3000C07292FAA2F2616AB2FA82F29140A26A9B
:100B40004FF0FF3303EB52024FF4403393FAA3F319
:100B5000B3FA83F39A40114308434FF0706292FA5C
:100B6000A2F2E16AB2FA82F29140084300E01CE08E
:100B7000CBF80000C6F860A0FFF798FC044604E03C
:100B8000FFF794FC001B022809D828688001F7D5DC
:100B90000BE000BFFFF78AFC001B022802D90320EC
:100BA000BDE8F88F28688001F4D40020F8E7012020
:100BB000F6E700000838024000004742800E474236
:100BC000007000404FF0E0210428086903D020F0B5
:100BD00004000861704740F00400FAE710B5401EB9
:100BE000B0F1807F01D3012010BD4FF0E02460619F
:100BF0000F21601700F004FA0020A0610720206197
:100C0000002010BD7047704710B5040003D094F861
:100C1000390010B107E0012010BD002084F8380031
:100C2000204600F00CF8022084F83900211D2068CD
:100C300000F0D0FA012084F83900002010BD704780
:100C40000168CA6842F00102CA600068016841F0A8
:100C50000101016000207047704770B504460068CC
:100C600001694FF00005C943890715D4C168C9431C
:100C7000890711D4E91E016101202076206880696E
:100C80008007204602D0FFF7E7FF04E000F098F865
:100C9000204600F096F8257620680169C943490787
:100CA00017D4C168C943490713D46FF00401016127
:100CB000022020762068806910F4407F204602D010
:100CC000FFF7CAFF04E000F07BF8204600F079F857
:100CD000257620680169C943090716D4C168C9434C
:100CE000090712D46FF00801016104202076206802
:100CF000C0698007204602D0FFF7AEFF04E000F095
:100D00005FF8204600F05DF8257620680169C94348
:100D1000C90617D4C168C943C90613D46FF01001BE
:100D20000161082020762068C06910F4407F2046C9
:100D300002D0FFF791FF04E000F042F8204600F0F7
:100D400040F8257620680169C943C90708D1C16800
:100D5000C943C90704D1891E0161204600F032F859
:100D600020680169C943090609D4C168C943090655
:100D700005D46FF0800101612046FFF743FF206832
:100D80000169C943490609D4C168C943490605D464
:100D90006FF040010161204600F01EF820680169F3
:100DA000C94389060BD4C168C943890607D46FF0CB
:100DB000200101612046BDE87040FFF724BF70BDEF
:100DC0007047704700680349884201D1FFF774BB40
:100DD0007047000000000140704770B5040004D067
:100DE00094F83900002510B106E0012070BD84F8A8
:100DF0003850204600F022F8242084F8390020687A
:100E0000C16821F40051C160204600F043FA206817
:100E1000016921F4904101612068416921F02A01B2
:100E200041612068C16841F40051C160E563202040
:100E300084F8390084F83A00002070BD00B50068DD
:100E40000E4987B0884216D10D48016841F400313F
:100E500001600068694600F4003005900C200090A5
:100E600002200190012002900320039007200490AB
:100E70000448FFF743FA07B000BD000000440040FB
:100E800040380240000002402DE9F843044690F843
:100E90003A00994616460D4620284FD195B18EB19D
:100EA00094F83800012849D0012084F83800002740
:100EB000E763222084F83A00FFF7F8FAA685804617
:100EC000E68531E00120BDE8F883E08D401EE08535
:100ED000A0684346B0F5805F4FF000024FF020015C
:100EE0002046CDF8009004D000F02AFB98B10320F2
:100EF000E9E700F025FB0028F9D1206900282068E7
:100F0000406803D0C1B225F8011B0DE0C0F3080111
:100F100025F8021B08E0206900282068406801D0FD
:100F200000F07F0005F8010BE08D0028CDD12020D6
:100F300084F83A0084F838700020C4E70220C2E741
:100F40002DE9F843044690F839001F4616460D4631
:100F5000202850D1A5B19EB194F8380001284AD07C
:100F6000012084F838004FF00008C4F83C802120AC
:100F700084F83900FFF79AFAA6848146E68426E0D1
:100F80000120BDE8F883E08C401EE084A0684B4659
:100F9000B0F5805F4FF000024FF0800120460097CF
:100FA00003D000F0CDFAE8B90DE000F0C9FAC8B9F5
:100FB00028882168C0F308004860206908B16D1CCA
:100FC00005E0AD1C03E0216815F8010B4860E08CDA
:100FD0000028D8D14B46002240212046009700F03F
:100FE000AFFA08B10320CCE7202084F8390084F858
:100FF00038800020C5E70220C3E7FEE7FEE7704720
:101000000907090E002806DA00F00F0000F1E020C1
:1010100080F8141D704700F1E02080F8001470473C
:10102000012000F03DFBFBE708B5174D174C4FF4CE
:101030007A7600270095002332461946206800F092
:10104000EFFF0028F7D010496423322201F1340069
:10105000FFF71AFF0C48FFF735F948B10023324675
:101060006946606901F0D4F80748FFF72BF9606022
:1010700000202F54401C3228FBDB00231A4619465F
:10108000206801F0C5F8D6E7B80000200000002075
:1010900008B50CA00C4D4FF47A7400900023224642
:1010A0006946686900F0BCFF40B10098FFF70AF993
:1010B00082B2642305480099FFF742FF012000F047
:1010C000EFFAEBE70000000000000020EC00002039
:1010D00000F0F2BA30B5254893B00025016841F020
:1010E00080510160006800F0805011902048016834
:1010F00041F4804101600068022400F480401190B6
:101100000120039010200490009406940820CDE95B
:101110000750A820CDE9090404200B906846FFF78A
:10112000DFFB00B1FEE70CA90F2081E831004FF48E
:10113000A0500F904FF48050109005210CA8FFF79D
:1011400081FA00B1FEE7FFF75BFB4FF47A71B0FB69
:10115000F1F0FFF743FD0420FFF734FD00220F21DB
:10116000501EFFF73DFA13B030BD0000403802407A
:10117000007000401048016841F4700101600F48A0
:10118000016841F0010101600C4A00210832116040
:1011900002680B4B1A400260031D0A4A1A6002687B
:1011A00022F48022026005480C3001600249580692
:1011B000803908607047000088ED00E00038024088
:1011C000FFFFF6FE103000240148FFF746BD000087
:1011D0007C000020F0B50268234B244D244E254F9F
:1011E000254C4FF0804C984209D0604507D0A8426A
:1011F00005D0B04203D0B84201D0A04204D122F0C1
:10120000700E4A6842EA0E0298421BD0604519D01F
:10121000A84217D0B04215D0B84213D0A04211D086
:10122000164DA8420ED0164DA8420BD0154DA8421F
:1012300008D0154DA84205D0144DA84202D0144D37
:10124000A84203D122F44075CA682A4302608A6822
:10125000C2620A688262984201D0A04201D1096943
:10126000016301214161F0BD000001400004004024
:1012700000080040000C0040000401400040014014
:10128000004401400048014000180040001C00409C
:10129000002000402DE9F04104460068016921F476
:1012A0004052E168114301612168C86849F20C624B
:1012B00090432369A268E5691A4363692B431A4383
:1012C0000243CA602168486920F44072A069104353
:1012D0004861E1696425B1F5004F9748974A216854
:1012E0004FF032083FD0914201D081427CD1FFF7CC
:1012F000A5FA00EBC00101EB001061688900B0FBAA
:10130000F1F6FFF79BFA00EBC00101EB00106168FA
:101310008900B0FBF1F0B0FBF5F06FF01801484325
:1013200006EB800108EB0110B0FBF5F000F0F006D1
:10133000FFF784FA00EBC00101EB0010616889003F
:10134000B0FBF1F0B0FBF5F006EB0016FFF776FA14
:1013500000EBC00101EB001061688900B0FBF1F700
:10136000FFF76CFAD2E0914201D081423DD1FFF704
:1013700065FA00EBC00101EB001061684900B0FBA9
:10138000F1F0B0FBF5F00601FFF758FA00EBC001F1
:1013900001EB001061684900B0FBF1F7FFF74EFA6E
:1013A00000EBC00101EB001061684900B0FBF1F0F7
:1013B000B0FBF5F06FF01801484307EB800108EB34
:1013C000C100B0FBF5F000F0F80006EB4006FFF7B7
:1013D00035FA00EBC00101EB001061684900B0FB79
:1013E000F1F7FFF72BFA3CE055E0FFF70FFA00EBBF
:1013F000C00101EB001061684900B0FBF1F0B0FBE7
:10140000F5F00601FFF702FA00EBC00101EB001056
:1014100061684900B0FBF1F7FFF7F8F900EBC00194
:1014200001EB001061684900B0FBF1F0B0FBF5F092
:101430006FF01801484307EB800108EBC100B0FBD7
:10144000F5F000F0F80006EB4006FFF7DFF900EBDF
:10145000C00101EB001061684900B0FBF1F7FFF734
:10146000D5F900EBC00101EB001061684900B0FB49
:10147000F1F0B0FBF5F06FF01801484307EB800185
:1014800008EBC100B0FBF5F000F007002168304424
:101490008860BDE8F081FFF7B9F900EBC00101EB0E
:1014A000001061688900B0FBF1F6FFF7AFF900EBBF
:1014B000C00101EB001061688900B0FBF1F0B0FBE6
:1014C000F5F06FF01801484306EB800108EB0110BE
:1014D000B0FBF5F000F0F006FFF798F900EBC00163
:1014E00001EB001061688900B0FBF1F0B0FBF5F092
:1014F00006EB0016FFF78AF900EBC00101EB0010C4
:1015000061688900B0FBF1F7FFF780F900EBC001DB
:1015100001EB001061688900B0FBF1F0B0FBF5F061
:101520006FF01801484307EB800108EB0110B0FB96
:10153000F5F000F00F00A9E7001401400010014091
:101540002DE9F041984617460E460446069D1DE0DB
:10155000681C1BD02DB1FEF7A9FFA0EB0800A84224
:1015600014D92068C16821F4D071C1602068416934
:1015700021F001014161202084F8390084F83A000B
:10158000002084F838000320BDE8F081206800685E
:1015900036EA000004D00020B842D9D00020F3E79A
:1015A0000120F9E7FEE702E008C8121F08C1002A7F
:1015B000FAD170477047002001E001C1121F002AD4
:1015C000FBD1704790B0FEF77FFFFFF783FD2C48FB
:1015D0000021026842F004020260026802F0040284
:1015E0000F92026842F080020260026802F08002FC
:1015F0000F92026842F0010202600068214A00F086
:1016000001000F90204802604FF4E132C0E901214F
:101610000C22C160C0E904128161C161FFF7DDFBEA
:1016200000B1FEE7012000F0A3FC184C1422184979
:1016300020606846FEF722FE0021684600F046F86A
:101640001349A0601422143105A8FEF717FE0021EB
:1016500005A800F03BF80E49E060142228310AA8E2
:10166000FEF70CFE00210AA800F030F804212061EA
:101670000022084600F0A1FC606100F018F8FEE7C7
:101680003038024000440040EC0000200000002000
:101690005028000801460020842900D0C81C70474B
:1016A00010B500B9012000F0B3FA002010BD10B54C
:1016B00000F06EFB002010BD10B500F06DFF01289A
:1016C00003D0BDE8104000F03DBC10BD30B504466D
:1016D00085B00D46B0F90800FFF7DCFF002104AA31
:1016E0000090CDE901210391208A2B4682B2D4E9F2
:1016F000001000F073FE012802D0002005B030BDBC
:101700000498FBE770B50B4C054620684560E0681F
:101710002168854205D2606BBDE87040091D00F06C
:10172000E1B9206B091D00F0DDF9A06A854200D205
:10173000A56270BD3800002070B5124E124C1AE040
:1017400000F05AFB3068D0B101F020F800F0EEF95B
:10175000F068C568281D00F0A5F9A068401EA060CB
:101760006068401E606000F001FA286B00F012FA19
:10177000284600F00FFA60680028E1D170BD01F042
:1017800005F8F8E7F43D00203800002030B4026C82
:101790000B46002A0BD0C1681144C1604468A142C5
:1017A00001D30168C16030BC1846FEF767BD30BC8C
:1017B000704770B51646026C0446002582B1C6B16A
:1017C000E068FEF75BFDE168206C091AE1602268C1
:1017D000914202D26168081AE060022E16D01AE027
:1017E0002068C0B9606800F04BFF054600206060CB
:1017F00011E0A068FEF742FD216CA0680844A060DB
:101800006168884207D32068A06004E0A06B10B133
:10181000A06B401EA063A06B401CA063284670BD57
:1018200010484FF47051420706D0C01D0D4920F0FA
:101830000700411AC1F570510B4A00230144C2E967
:1018400000030839103A21F0070111604B600B606A
:101850000B1AC0E9001393604FF000405360D06052
:10186000704700002C01002030000020074C4FF092
:101870008056074DFFF760FF20680128FAD92E60D7
:10188000BFF34F8FBFF36F8FF4E700002C3D0020B4
:1018900004ED00E030B5114900E011460A688242CB
:1018A000FBD34B685C18844203D1406818444860FD
:1018B000084643681C18944209D1084C103C24681F
:1018C000A24209D052681A4442600A681268026053
:1018D000814200D0086030BD0460F9E7300000208C
:1018E0000648016B096829B1016BC968C968496874
:1018F000816270474FF0FF31FAE7000038000020A6
:1019000008484068401C4FF0500080F3118804D014
:10191000BFF34F8FBFF36F8FFEE7BFF34F8FBFF360
:101920006F8FFEE77000002070B5044600F0FEF8EF
:1019300004F124050AE0606A58B1284600F0ECFE84
:1019400008B100F099F9A06C401EA064A06C0028BA
:10195000F1DC4FF0FF36A66400F008F900F0E6F87D
:1019600004F110050AE0206958B1284600F0D4FEC1
:1019700008B100F081F9606C401E6064606C002862
:10198000F1DC6664BDE8704000F0F0B82DE9F0418C
:101990000546002700F030FA314E306808B9FFF7ED
:1019A0003FFFF06805424BD1C5B3083568070ED03C
:1019B00005F00700C0F108000544680707D0502073
:1019C00080F31188BFF34F8FBFF36F8FFEE72DB306
:1019D0007068854234D82248103001460C6801E016
:1019E00020460C466168A94202D221680029F7D13D
:1019F00031688C4224D0076821680160606808372C
:101A0000411B10290FD96019420708D0502080F3DC
:101A10001188BFF34F8FBFF36F8FFEE710E0416077
:101A20006560FFF737FF61687068401A7060B268E0
:101A3000904200D2B060F06801430020C4E9000188
:101A400000F0A4FE780707D0502080F31188BFF380
:101A50004F8FBFF36F8FFEE73846BDE8F08100007F
:101A6000200000200449086818B10868026D521C63
:101A700002650868704700003800002010B5031F99
:101A80004FF080741C601B1F1960191F044B0B6002
:101A900014390A60091F6FF0020244380A6010BD51
:101AA00001190008D0E9013201699A60D0E90123E7
:101AB0005A604A68824201D182684A60002202610B
:101AC0000868401E0860704700F108014FF0FF32BF
:101AD000C0E90112C160016100210160704700216D
:101AE0000161704730B50B685A1C02D000F1080242
:101AF00002E0026904E02246546825689D42FAD952
:101B000053684B6099608A60516008610168491CA4
:101B1000016030BD42684A6093688B609368596089
:101B2000916008610168491C01607047502080F392
:101B30001188BFF34F8FBFF36F8F0A494868401C6D
:101B4000486001280CD10848006810F0FF0F07D04A
:101B5000502080F31188BFF34F8FBFF36F8FFEE7E4
:101B6000704700007000002004ED00E0084948685C
:101B700028B1401E486001D180F311887047502081
:101B800080F31188BFF34F8FBFF36F8FFEE7000024
:101B90007000002070B5002827D0144DA0F1080473
:101BA0006168E868014207D1502080F31188BFF3D3
:101BB0004F8FBFF36F8FFEE722683AB1502080F35A
:101BC0001188BFF34F8FBFF36F8FFEE781436160D2
:101BD00000F012F960686968084468602046FFF701
:101BE00059FEBDE8704000F0D1BD70BD200000205E
:101BF00006484FF47A710068B0FBF1F14FF0E02035
:101C0000491E416107210161704700001800002052
:101C100070B5020022D0164CE06A38B1502080F333
:101C20001188BFF34F8FBFF36F8FFEE700F0E4F82A
:101C3000E06885182068001DFFF734FF38B9206878
:101C400090F82C10012088402169814321612846A9
:101C5000FFF758FD00F09AFD002807D105494FF025
:101C600080500860BFF34F8FBFF36F8F70BD0000CF
:101C70003800002004ED00E001490120C8617047F0
:101C80003800002070B50D4650B1154C2168183150
:101C9000FFF728FF2068001DFFF704FF40B10FE0A9
:101CA000502080F31188BFF34F8FBFF36F8FFEE793
:101CB000206890F82C10012088402169814321611F
:101CC000681C05D0E0682844BDE87040FFF71ABDE5
:101CD0002168BDE870400348091DFFF71BBF0000E5
:101CE00038000020083E002070B5040039D01D4D9A
:101CF000E06A2968C96A884233D2A069002804DBF7
:101D00002868C06AC0F10700A061E16A164E01EBC5
:101D10008101606906EB810188421FD1201DFFF718
:101D2000C1FE012150B9E06A00EB800256F8222082
:101D300022B92A6901FA00F082432A612868C06A40
:101D4000E0622A6981401143296100EB800006EBC3
:101D50008000211DBDE87040FFF7DCBE2868C06A26
:101D6000E06270BD380000202C3D002028B10749FA
:101D70000A6A0260C96841607047502080F3118888
:101D8000BFF34F8FBFF36F8FFEE7000038000020D6
:101D90001FB500240094019402942346802212A1CE
:101DA0001348039400F01AFB012809D0002819D128
:101DB000502080F31188BFF34F8FBFF36F8FFEE782
:101DC000502080F31188BFF34F8FBFF36F8F094806
:101DD0004FF0FF31816201214161C460BDE81F40C5
:101DE00000F040B81FBD000049444C450000000011
:101DF0006D180008380000200248C16A491CC16201
:101E000070470000380000201448C16A11B1012158
:101E1000C16170470021C1610169B1FA81F1C1F16D
:101E20001F0101EB81020E4951F822306BB101EB29
:101E3000820101F108034A6852684A609A4201D15E
:101E400052684A60D16801607047502080F3118861
:101E5000BFF34F8FBFF36F8FFEE700003800002005
:101E60002C3D00201CB532480168324A914207D10E
:101E7000502080F31188BFF34F8FBFF36F8FFEE7C1
:101E800000682C49491E884207D1502080F31188F0
:101E9000BFF34F8FBFF36F8FFEE72749087801909C
:101EA000FF20087008788DF800009DF800009DF86C
:101EB000002000F0F000904207D0502080F31188FD
:101EC000BFF34F8FBFF36F8FFEE79DF800001B4AF3
:101ED00000F0500010700720906005E09DF8003081
:101EE0005B008DF80030401E9DF800301B06F5D4D5
:101EF000000200F4E0609060019808700C48203007
:101F0000016841F470010160016841F070410160B5
:101F1000FFF76EFE00205060FEF760F90848016888
:101F200041F040410160FEF749F900201CBD00006E
:101F300000ED00E071C20F4100E400E070000020FD
:101F400034EF00E010B5502080F31188BFF34F8FBD
:101F5000BFF36F8F00F02EFB18B104494FF0805093
:101F60000860002080F3118810BD000004ED00E03F
:101F700070B505465420FFF709FD04001BD0002171
:101F800061602160A160E160A1630120C4E90F01EB
:101F9000801E6064A06484F8505004F11000FFF7C4
:101FA00093FD04F12400FFF78FFD00231A46194624
:101FB000204600F02DF9204670BD2DE9F04117466E
:101FC0000E46050017D0F6B105FB06F0401C543054
:101FD000FFF7DCFC04001AD0BEB104F1540020600D
:101FE000C4E90F560121204600F0D0F884F8507063
:101FF0002046BDE8F081502080F31188BFF34F8F59
:10200000BFF36F8FFEE70020E1E72460E8E7502090
:1020100080F31188BFF34F8FBFF36F8FFEE700008F
:102020002DE9FF47002582B09A468946040003D077
:10203000B9F1000F08D011E0502080F31188BFF3F0
:102040004F8FBFF36F8FFEE7206C38B1502080F3C5
:102050001188BFF34F8FBFF36F8FFEE700F09CFA3C
:10206000494F4FF000084FF0805648B9049838B1F6
:10207000502080F31188BFF34F8FBFF36F8FFEE7BF
:10208000FFF754FDA06B60B349462046E568FFF7B3
:102090007DFBBAF1000F12D0E560606A48B104F12F
:1020A000240000F039FB20B13E60BFF34F8FBFF337
:1020B0006F8FFFF75BFD012006B0BDE8F087A06BD6
:1020C000401EA063206810B9FFF7CCFC6060206957
:1020D0000028EED004F1100000F01EFB0128E3D030
:1020E000E7E7049808B11DB106E0FFF73FFD1FE0E8
:1020F0006846FFF73BFE0125FFF738FDFFF77CFE42
:10210000FFF714FD606C401C01D1C4F84480A06C42
:10211000401C01D1C4F84880FFF728FD04A9684697
:1021200000F026F930B12046FFF7FEFB00F02EFB51
:102130000020C1E7FFF7FAFCA06B38B1FFF716FDEE
:102140002046FFF7F1FB00F021FB99E7FFF70EFDBA
:10215000206830B9FFF7EAFC6068FFF7C5FDFFF7BC
:1021600005FD04F124000499FFF78CFD2046FFF7DC
:10217000DBFB00F00BFB002882D13E60BFF34F8FEA
:10218000BFF36F8F7CE7000004ED00E070B50D46F3
:10219000040023D0FFF7CAFCD4E90F20216802FB1A
:1021A000001161600021A1632168A1600A46D4E9A1
:1021B0000F01401E00FB01214FF0FF30E160606421
:1021C000A06404F110008DB1FFF77EFC04F124003F
:1021D000FFF77AFCFFF7CAFC012070BD502080F3A6
:1021E0001188BFF34F8FBFF36F8FFEE7216900297E
:1021F000F0D000F091FA0128ECD104490007086002
:10220000BFF34F8FBFF36F8FE4E7000004ED00E0F2
:102210002DE9FF4782B01D468A464FF000080400B2
:1022200003D0BAF1000F08D011E0502080F31188DC
:10223000BFF34F8FBFF36F8FFEE7206C38B1502094
:1022400080F31188BFF34F8FBFF36F8FFEE7022D2E
:102250000AD1E06B012807D0502080F31188BFF32A
:102260004F8FBFF36F8FFEE700F096F93F4F4FF0AF
:1022700000094FF0805648B9049838B1502080F3D7
:102280001188BFF34F8FBFF36F8FFEE7FFF74EFC50
:10229000A06BE16B884207D3022D05D00498E8B10A
:1022A000B8F1000F1DD021E02A4651462046FFF725
:1022B00080FA616A31B104F1240000F02DFA01289E
:1022C00001D005E020B13E60BFF34F8FBFF36F8FA9
:1022D000FFF74CFC012006B0BDE8F087FFF746FC95
:1022E00020E06846FFF742FD4FF00108FFF73EFC93
:1022F000FFF782FDFFF71AFC606C401C01D1C4F8A7
:102300004490A06C401C01D1C4F84890FFF72EFC0B
:1023100004A9684600F02CF830B12046FFF704FB12
:1023200000F034FA0020D6E7FFF700FCA06BE16B69
:10233000884213D1FFF71AFC04F110000499FFF74B
:10234000A1FC2046FFF7F0FA00F020FA00289DD10A
:102350003E60BFF34F8FBFF36F8F97E7FFF706FC29
:102360002046FFF7E1FA00F011FA8FE704ED00E0F4
:1023700070B50D46040019D005B3FFF7D7FB164A18
:10238000D1682868431C0FD02368126A934202D098
:1023900062688A421AD96268891A814216D2401A42
:1023A00028602046FFF7E2FC002410E0502080F374
:1023B0001188BFF34F8FBFF36F8FFEE7502080F37C
:1023C0001188BFF34F8FBFF36F8FFEE70124FFF734
:1023D000CDFB204670BD0000380000202DE9FF5FD6
:1023E0005FEA000BDDE90F900E9E15468A4609D084
:1023F000072E0FD3502080F31188BFF34F8FBFF308
:102400006F8FFEE7502080F31188BFF34F8FBFF32B
:102410006F8FFEE7A900884610B90846FFF7B6FAA5
:1024200007001ED05C20FFF7B1FA0400384616D032
:10243000A52241462063FDF733FF6FF00301206BB7
:1024400001EB8501084420F0070778070CD05020E5
:1024500080F31188BFF34F8FBFF36F8FFEE7FFF755
:1024600099FB4FF0FF348CE051463546002022188E
:102470000B5C82F834300A5C12B1401C1028F6D391
:10248000002084F84300072D00D30625E562C4E947
:1024900013508046201DFFF722FB04F11800FFF7C0
:1024A0001EFB2461C5F107016462A161C4F8548078
:1024B00084F8588059463846039AFFF7DFFA2060BF
:1024C000B9F1000F01D0C9F80040FFF72FFB2F4DE5
:1024D000A868401CA8602868DFF8B48010B168695B
:1024E00048B32DE02C60A868012829D15FF00007CF
:1024F00007EB870108EB8100FFF7E6FA7F1C072F47
:10250000F6D323488C30FFF7DFFA2148A030FFF7DD
:10251000DBFA1F48B430FFF7D7FA1D48C830FFF781
:10252000D3FA1B48DC30FFF7CFFA19488C30286308
:102530001430686304E02868C06AB04200D82C6098
:10254000686A401C68626064E16A01202A69884008
:102550001043286101EB810108EB8100211DFFF789
:10256000D9FA0124FFF702FB686950B12868C06AF4
:10257000B04206D2074920070860BFF34F8FBFF370
:102580006F8F04B02046BDE8F09F000038000020A7
:102590002C3D002004ED00E00548416919B1C06AF6
:1025A00018B10020704701207047022070470000DA
:1025B000380000202DE9F0412F4C0026E06A40B1A0
:1025C000A069401CA061E06900B101263046BDE869
:1025D000F081E068401CE060E7689FB9206B00680C
:1025E00038B1502080F31188BFF34F8FBFF36F8F46
:1025F000FEE7206B616B21636063206A401C2062F0
:10260000FFF76EF9A06ADFF87480874209D3206B68
:10261000006880B1206BC068C568686887420DD2C9
:10262000A0622068C06A00EB800158F821000128F0
:10263000C9D90126C7E74FF0FF30F1E7281DFFF7A2
:1026400031FAA86A18B105F11800FFF72BFAE86A09
:102650000121226981401143216100EB800108EBD7
:102660008100291DFFF756FAE86A2168C96A884285
:10267000CDD30126CBE70000380000202C3D002000
:1026800070B504004FF0000140D0214D286884420D
:1026900007D0502080F31188BFF34F8FBFF36F8FA7
:1026A000FEE7206D38B1401E2065E36CE26A9A4275
:1026B0002CD040B12AE0502080F31188BFF34F8F17
:1026C000BFF36F8FFEE7201DFFF7ECF9114A0121E0
:1026D00050B9E06A00EB800352F8233023B92B692C
:1026E00001FA00F083432B61E06CE062C0F1070067
:1026F000A061E06A2B6981401943296100EB8000E9
:1027000002EB8000211DFFF705FA0121084670BD8C
:10271000380000202C3D00202DE9F041C068C4683D
:10272000ACB104F118000746FFF7BCF9154DE86A93
:102730000126A0B139461448FFF7ECF9E06A296890
:10274000C96A88421CD90120EE61BDE8F0815020A1
:1027500080F31188BFF34F8FBFF36F8FFEE7201D0B
:10276000FFF7A0F9E16A2A6906FA01F0104328612F
:1027700001EB81000449B43901EB8000211DDBE746
:102780000020E2E738000020E03D00202DE9F0477E
:102790002C4C0026E06A38B1FFF7C8F9E06A401E09
:1027A000E062E06A40B147E0502080F31188BFF357
:1027B0004F8FBFF36F8FFEE7A168234D012079B3E0
:1027C000A5F1B40980462868E8B1E868C76807F150
:1027D0001800FFF767F9381DFFF764F9F96A2269F5
:1027E00008FA01F01043206101EB810109EB81003F
:1027F000391DFFF78FF9F86A2168C96A8842E2D368
:10280000C4F81C80DFE7A06958B14546A06940B113
:10281000FFF7D0FE00B1E561A069401EA061F5E7B9
:102820000AE0E069012807D108490126000708608D
:10283000BFF34F8FBFF36F8FFFF798F93046BDE8B6
:10284000F087000038000020E03D002004ED00E0AB
:10285000B428000821100008FDFF0000000000005F
:10286000800000009C2800082910000800000000DB
:102870000000000080000000A82800089110000857
:1028800002000000000000008000000000000000C6
:102890000102030401020304060708096D7954616B
:1028A000736B3032000000006D795461736B30330C
:1028B0000000000064656661756C745461736B00A0
:1028C000E0280008000000207C000000A615000899
:1028D0005C2900087C000020A4410000B615000817
:1028E00000000000000000000000000000000000E8
:1028F00000000000000000000024F40000000000C0
:1029000000000000000000000000000000000000C7
:1029100000000000000000000000000000000000B7
:1029200000000000000000000000000000000000A7
:102930000000000000000000000000000000000097
:102940000000000000000000000000000000000087
:0C29500000000000AAAAAAAA00000000D3
:040000050800018965
:00000001FF
